:100000000C942E010C9456010C9456010C9456013C
:100010000C9456010C9456010C9456010C94560104
:100020000C9456010C94AC0D0C94A50A0C94220B64
:100030000C9456010C9456010C9456010C945601E4
:100040000C9456010C9456010C9456010C945601D4
:100050000C9456010C9456010C9456010C945B0AB6
:100060000C9456010C947A0D0C94540D0C9456017A
:100070000C9456010C9456010C9456010C945601A4
:100080000C9456010C9456010C9456010C94560194
:100090000C9456010C9456010C9456010C94560184
:1000A0000C9456010C9456010C945601080B000256
:1000B0000202000009040000010202000005240001
:1000C0001001052401010104240206052406000193
:1000D0000705810310004009040100020A00000026
:1000E00007050202400000070583024000000403E8
:1000F000090412010002EF02014041233680000191
:100100000102030141726475696E6F204C4C43001B
:1001100041726475696E6F204C656F6E6172646FB9
:100120000000000000240027002A002D00300000FD
:1001300000000200090F0000030401000C00000091
:1001400000000000000000000000000000000000AF
:100150000000000000002A2B280000000000000022
:1001600000000000000000000000000000002C9EC5
:10017000B4A0A1A2A434A6A7A5AE362D3738271E59
:100180001F20212223242526B333B62EB7B89F84FF
:1001900085868788898A8B8C8D8E8F909192939497
:1001A00095969798999A9B9C9D2F3130A3AD3504D5
:1001B00005060708090A0B0C0D0E0F101112131477
:1001C00015161718191A1B1C1DAFB1B0B500050183
:1001D0000906A1018502050719E029E71500250197
:1001E00075019508810295017508810395067508CA
:1001F000150025730507190029738100C000000050
:10020000002300260029002C002F000000000025FC
:100210000028002B002E0031000404040404030411
:100220000502020202040302020202060606060694
:100230000604040202020404040802011040804083
:1002400010204080408008020401804020100201FC
:100250001080102040402000260E0B1411241FBED9
:10026000CFEFDAE0DEBFCDBF12E0A0E0B1E0E6ED17
:10027000FAE202C005900D92AC3BB107D9F724E039
:10028000ACEBB2E001C01D92A33BB207E1F711E075
:10029000CDE2D1E004C02197FE010E945815CC3276
:1002A000D107C9F70E946C0F0C945E150C940000E6
:1002B000CF93DF93FC01818190916204482F490F15
:1002C0005527551F483051059CF5A281B3811097E1
:1002D00009F52EE534E033832283208120936004E6
:1002E0008093610480916304820F80832091640471
:1002F000A22FB09165048A2F821B8917E8F48181AF
:100300003D91C82FD0E0C45FDE4F38838F5F81837B
:10031000F2CFD90118962D913C91199721153105ED
:10032000C1F72EE534E019963C932E931897D5CF5C
:1003300080E0DF91CF91089581E0FBCF83E080934F
:10034000E9008091F200882319F08AE38093E800A5
:100350000895FC0180917003882311F13FB7F89450
:1003600082E08093E9002091F200822F90E018163D
:10037000190614F481E090E0882339F0289844E6C7
:1003800040936F034091F1004083222339F0209184
:10039000F200211103C02BE62093E8003FBF08952F
:1003A0008FEF9FEF089581508F3008F047C0E82FFE
:1003B000F0E0E352FE4F0C945815FA01FE01EC01F7
:1003C000F201F6011E021E021E02010207020B02CA
:1003D0000F0215021E021902809180008F77809310
:1003E00080000895809180008F7DF9CF80918000FA
:1003F000877FF5CF84B58F7784BD089584B58F7DD1
:10040000FBCF809190008F7780939000089580912A
:1004100090008F7DF9CF80919000877FF5CF8091FC
:10042000C0008F778093C00008958091C0008F7DB9
:10043000F9CF8091C200877F8093C20008951F93F7
:10044000CF93DF93282F30E0F901E15DFE4F8491D7
:10045000F901E85CFD4FD491F901E75EFD4FC491CD
:10046000CC23A9F0162F81110E94D301EC2FF0E0CC
:10047000EE0FFF1FE55FFD4FA591B4918FB7F89484
:10048000EC91111108C0D095DE23DC938FBFDF9172
:10049000CF911F910895DE2BF8CFCF93DF9390E09B
:1004A000FC01E85CFD4F2491875E9D4FFC01849127
:1004B0008823C9F090E0880F991FFC01EF5DFE4F83
:1004C000A591B491FC01E55FFD4FC591D4916111F7
:1004D0000DC09FB7F8948C91209582238C938881CE
:1004E000282328839FBFDF91CF910895623051F474
:1004F0009FB7F8943C91822F809583238C93E88159
:100500002E2BEFCF8FB7F894EC912E2B2C938FBF1F
:10051000EACF8230910538F0880F991F880F991F14
:1005200005970197F1F708953FB7F89480916B0311
:1005300090916C03A0916D03B0916E0326B5A89BBA
:1005400005C02F3F19F00196A11DB11D3FBFBA2F65
:10055000A92F982F8827BC01CD01620F711D811D25
:10056000911D42E0660F771F881F991F4A95D1F7AA
:1005700008958F929F92AF92BF92CF92DF92EF92A7
:10058000FF924B015C010E9494026B017C010E946E
:1005900094026C197D098E099F09683E734081059C
:1005A0009105A8F321E0821A9108A108B10888EE0C
:1005B000C80E83E0D81EE11CF11C81149104A10433
:1005C000B10429F7FF90EF90DF90CF90BF90AF90EC
:1005D0009F908F90089508950C949E0140910B0375
:1005E00050910C032091090330910A0342175307DD
:1005F000B4F49091E8009570E1F39091E80092FDD9
:1006000019C08093F10080910B0390910C03019627
:100610008F739927892B19F48EEF8093E8008091CE
:100620000B0390910C03019690930C0380930B03A2
:1006300081E0089580E00895EF92FF920F931F9359
:10064000CF93DF93F82E192FE62E042F81E0860F2B
:10065000880F0E94EE0283E00E94EE02CF2DD12F80
:10066000EC0EFD2EF11CCE15DF05B9F007FF13C00F
:10067000FE0184910E94EE02182F80E00E94EE029B
:10068000812321968111EFCFDF91CF911F910F919F
:10069000FF90EF9008958881EDCF81E0F5CFDF9254
:1006A000EF92FF920F931F93CF93DF93D82E8A017F
:1006B000EB017B01E40EF51ECE15DF0559F0D7FEE8
:1006C00012C0FE0184910E94EE0221968111F4CFA6
:1006D0000FEF1FEFC801DF91CF911F910F91FF9096
:1006E000EF90DF9008958881EECF2FB7F894877050
:1006F0008093E9009091E800892F807295FF04C0F3
:100700009091F20080E4891B2FBF08957F928F9211
:100710009F92AF92BF92CF92DF92EF92FF920F9390
:100720001F93CF93DF93C82E8B017A0180917003C2
:10073000811110C08FEF9FEFDF91CF911F910F912B
:10074000FF90EF90DF90CF90BF90AF909F908F90F1
:100750007F90089580910F0380FF05C08091E00095
:1007600082608093E000CE2DDF2DD12C8AEFB82E51
:100770008C2D8770982E8C2D8072882E8C2D8074F5
:10078000782E9AE3A92E209719F4DD2009F452C09F
:100790008C2D0E94750381110AC0BA94BB2051F2BE
:1007A00061E070E080E090E00E94B902ECCF8C172D
:1007B0001D0611F00CF08C2F9FB7F8949092E90071
:1007C0002091E80025FD02C09FBFDDCF282F30E03B
:1007D000C21BD30B882029F08150A0F01092F100A9
:1007E000FBCFF801C7FC0AC0815050F04191409303
:1007F000F100FACF44914093F10031968150D0F747
:10080000020F131FDD2021F0A092E800D12CDCCFD5
:100810008091E80085FD07C0A092E800DD24D39414
:10082000209791F2F3CF209779F6772069F2A09282
:10083000E800CACF5D9884E680930E03C7017CCFA1
:10084000615030F02091F100FC0120830196F8CF37
:10085000289884E680936F030895AF92BF92CF9259
:10086000DF92EF92FF920F931F93CF93DF936C0170
:100870007B018B01040F151FEB015E01AE18BF0851
:10088000C017D10759F06991D601ED91FC91019003
:10089000F081E02DC6010995892B79F7C501DF911B
:1008A000CF911F910F91FF90EF90DF90CF90BF906D
:1008B000AF9008958091010381110DC082E0809373
:1008C000FD0284E08093FE02109200031092FF026A
:1008D00081E0809301038DEF92E00895EF92FF9203
:1008E0001F93CF93DF931F92CDB7DEB77C0180912A
:1008F0006F0481112AC011E0109362041093630405
:1009000088E694E0909365048093640410926704F1
:10091000109266048FE391E090935F0480935E04ED
:1009200010926A041092690410926C0410926B0485
:1009300010936D0410936E0481EC809368040E9400
:100940005A040E94580110936F0482E0898341E0A9
:1009500050E0BE016F5F7F4F809161040E9486036B
:1009600097FD08C08091610448E050E0B7018064C1
:100970000E9486030F90DF91CF911F91FF90EF901F
:1009800008950F931F93CF93DF931F92CDB7DEB7D8
:1009900082E0898342E450E06CEA70E080E80E94E3
:1009A0004F030E945A04DC0112960D911C9101150F
:1009B000110589F0D801ED91FC910280F381E02DC1
:1009C000BE016F5F7F4FC801099597FD04C0F80114
:1009D00000851185ECCF89810F90DF91CF911F9118
:1009E0000F910895FC01538D448D252F30E0842F05
:1009F00090E0821B930B541710F0CF960895019747
:100A00000895FC01918D828D981761F0A28DAE0F33
:100A1000BF2FB11D5D968C91928D9F5F9F73928FBA
:100A200090E008958FEF9FEF0895FC01918D828DE6
:100A3000981731F0828DE80FF11D858D90E00895B3
:100A40008FEF9FEF0895FC01918D228D892F90E00B
:100A5000805C9F4F821B91098F739927089581E7CE
:100A600093E00E94230521E0892B09F420E0822FE6
:100A7000089580E090E0892B29F00E942F058111D4
:100A80000C9400000895FC01A48DA80FB92FB11D8E
:100A9000A35ABF4F2C91848D90E001968F739927B4
:100AA000848FA689B7892C93A089B1898C9182748F
:100AB0008C93938D848D981306C00288F389E02D62
:100AC00080818F7D80830895EF92FF920F931F9313
:100AD000CF93DF93EC0181E0888F9B8D8C8D9813F1
:100AE00019C0E889F989808185FF14C09FB7F894FF
:100AF000EE89FF896083E889F98980818274808327
:100B00009FBF81E090E0DF91CF911F910F91FF9007
:100B1000EF900895F62E0B8D10E00F5F1F4F0F73AF
:100B20001127E02E8C8D8E110CC00FB607FCFACF6A
:100B3000E889F989808185FFF5CFCE010E944305C0
:100B4000F1CFEB8DEC0FFD2FF11DE35AFF4FF0823B
:100B50009FB7F8940B8FEA89FB8980818062CFCFA1
:100B6000CF93DF93EC01888D8823B9F0AA89BB89E4
:100B7000E889F9898C9185FD03C0808186FD0DC0CF
:100B80000FB607FCF7CF8C9185FFF2CF808185FFF0
:100B9000EDCFCE010E944305E9CFDF91CF910895BB
:100BA000CF93DF93EC0180910B01882331F083E038
:100BB0000E9486031816190634F081E090E09B83AA
:100BC0008A8380E090E0DF91CF910895CF93DF9307
:100BD0001F92CDB7DEB76983DC01ED91FC910280F5
:100BE000F381E02D41E050E0BE016F5F7F4F09953A
:100BF0000F90DF91CF91089583E00E94750390E0FC
:100C00000895CF93DF931F92CDB7DEB7FC018485A3
:100C1000958597FD08C02FEF3FEF358724870F900C
:100C2000DF91CF910895CE0101960E94A90101970D
:100C300019F4898190E0F3CF8FEF9FEFF0CF0F93FE
:100C40001F93CF93DF931F92CDB7DEB78C01FC01CA
:100C50008485958597FF0BC0CE0101960E94A9015E
:100C6000019771F4898190E0F80195878487F801F4
:100C7000848595850F90DF91CF911F910F910895F5
:100C80008FEF9FEFF1CFFC018485958597FD0BC019
:100C90009FB7F89482E08093E9008091F2009FBFB3
:100CA00090E0019608959FB7F89482E08093E90060
:100CB0008091F2009FBF90E008952091130330913E
:100CC00014032817390771F49091110380911203CE
:100CD000981741F0E0911103F0E0E354FD4F80815B
:100CE00090E008958FEF9FEF0895EF92FF920F939A
:100CF0001F93CF93DF93DC015C96ED90FC905D97A2
:100D0000E114F10479F481E090E013969C938E93C2
:100D1000129790E080E0DF91CF911F910F91FF90AB
:100D2000EF9008955196ED91FC91529750968C91C9
:100D30005097982F90950FB75E962C915E97122F33
:100D4000127021FD6095F8942081112319F1282B50
:100D50002083E7012197F1F728E0462F50E030810A
:100D600060FF1AC0382B3083E7012197F1F7BA01F1
:100D700075956795215089F7112381F0808189232A
:100D800080830FBF5C968D919C910197F1F781E074
:100D900090E0C1CF2923DCCF3923E5CF9081892B87
:100DA000EFCF20911303309114032817390761F412
:100DB000809112032091110390E0805C9F4F821B71
:100DC00091098F739927089590E080E0089520910C
:100DD00013033091140328173907B9F490911103C4
:100DE00080911203981789F0E0911103F0E0E35429
:100DF000FD4F80812091110330E02F5F3F4F2F7313
:100E000033272093110390E008958FEF9FEF08950B
:100E1000DC01FB0112962C91129784819581281791
:100E2000190641F491818081813A31F49D7F81E0FE
:100E3000913009F080E008958132E1F79B3029F488
:100E400082811F968C9381E008959A3099F7828170
:100E500050968C93F8CFDC01FB0188E4808389E411
:100E6000818384E482831D969C911D979F709F5B74
:100E700093831D968D919C9124E0969587952A9554
:100E8000E1F78F708F5B848385E00895EF92FF9286
:100E90000F931F93CF93DF93FB012081213871F5CE
:100EA0002381223259F5DC0112964C91248135813F
:100EB0004217130619F5EC010B851C85F12CE12C6A
:100EC0000115110589F0F801448155816281738112
:100ED00080E80E944F038F3F980749F0E80EF91E03
:100EE000D8010D911C91ECCF81E08F87C701DF9174
:100EF000CF911F910F91FF90EF90089590E080E0C7
:100F0000F6CFCF93DF93CDB7DEB769970FB6F894DE
:100F1000DEBF0FBECDBFFC01DB018C918F5F8C93D8
:100F20009E012D5F3F4F8DE0D9011D928A95E9F713
:100F300029E0298384E08A8391E09D8383E08E8386
:100F40002A8721E22B879C879D879F8722E2288B17
:100F500027E02B8B25E02C8B8E8B20E430E0388F24
:100F60002F8B998F82818B8395858685998B8A8B30
:100F7000838180688D8B49E150E0BE016F5F7F4FB8
:100F800080E00E944F0369960FB6F894DEBF0FBE53
:100F9000CDBFDF91CF910895CF92DF92EF92FF9274
:100FA0000F931F93CF93DF936C01EB017B01E40E52
:100FB000F51E10E000E0CE15DF0581F069916D307F
:100FC000D1F3D601ED91FC910190F081E02DC601A5
:100FD0000995892B19F00F5F1F4FEDCFC801DF91E5
:100FE000CF911F910F91FF90EF90DF90CF900895D8
:100FF000EF92FF921F93CF93DF93EC01162FE8E758
:10100000E60F683888F4862F90E067FF50C0FC0137
:10101000E058F10921E030E001C0220FEA95EAF73B
:101020008C81822B8C83E0E08E818E17D9F08F81AA
:10103000E817C1F08885E817A9F08985E81791F0CD
:101040008A85E81779F08B85E81761F0DE0116963E
:1010500090E080E02D9121115EC08C0F9D1FDC017E
:101060001696EC93CE0104960E946E04EE24E3944F
:10107000F12C183848F11858DE0186E0112341F0B0
:1010800016969C911697191303C016961C921697E4
:10109000815011968111F2CFCE0104960E946E0408
:1010A000C701DF91CF911F91FF90EF900895EC85DC
:1010B000FD85E80FF91FE491E11119C081E090E08E
:1010C0009B838A83F12CE12C812F90E017FF2FC0A6
:1010D000FC01E058F10981E090E001C0880FEA9539
:1010E000EAF780959C8189238C8310E0C5CF8E2FF1
:1010F000807C803C49F48C8180648C83EF73E23384
:1011000009F092CFE4E690CFE7FFF9CF8C818260BF
:101110008C83EF77F4CF01968630910509F09ACF52
:1011200081E090E09B838A83F12CE12CA2CFEC85B7
:10113000FD85E80FF91F1491112309F4B1CF812F18
:10114000807C803C49F48C818F7B8C831F731233AD
:1011500009F092CF14E690CF17FFF9CF8C818D7FE5
:101160008C831F77F4CF089590E080E00895CF92AC
:10117000DF92EF92FF920F931F93CF93DF93D0E014
:10118000C0E010E000E0EE24E394F12CFE01EF5CFF
:10119000FE4F8491FE01E65CFD4FC490FE01E55ECA
:1011A000FD4FD490DD2039F181110E94D301ED2D46
:1011B000F0E0EE0FFF1FE350FE4FA591B491EC91CC
:1011C000CE22C9F0C7010C2E02C0880F991F0A94C5
:1011D000E2F780959095082319232196CA30D1050E
:1011E000A9F6C801DF91CF911F910F91FF90EF9069
:1011F000DF90CF900895C7010C2E02C0880F991F71
:101200000A94E2F7082B192BE8CFFB01019000208C
:10121000E9F73197AF01461B570BDC01ED91FC91CB
:101220000280F381E02D09948F929F92AF92BF923A
:101230000F931F93CF93DF93CDB7DEB7A1970FB670
:10124000F894DEBF0FBECDBF19A2423008F44AE0C9
:101250008E010F5D1F4F842E912CB12CA12CA50166
:1012600094010E941315E62FB901CA01EA3004F572
:10127000E05DD801EE938D01232B242B252B79F7EC
:1012800090E080E0109729F0BD0183E994E00E948E
:101290000509A1960FB6F894DEBF0FBECDBFDF9152
:1012A000CF911F910F91BF90AF909F908F90089515
:1012B000E95CDFCF0F931F93CF93DF93EC010E9484
:1012C00005098C0165E671E0CE010E940509800FD9
:1012D000911FDF91CF911F910F9108959091E1009F
:1012E0008091BC0294FF0CC0811103C081E0809307
:1012F000BC028091E1008F7E8093E10080E0089540
:1013000081111092BC0208950C940509FF920F936D
:101310001F93CF93DF93EC01F62E08811981C8014A
:101320000E94CB14F81621F06F2DC8010E94D3142F
:10133000CE01DF91CF911F910F91FF9008950C94F2
:10134000CB140F931F93CF93DF9305E213E0C4E018
:10135000D0E0CE010E949F09F80181938F01219670
:10136000C534D105B1F705E113E0CE010E949F0914
:10137000F80181938F012196C535D105B1F7DF9131
:10138000CF911F910F910895CF9383E090E00E9439
:101390009F09C82F82E090E00E949F099C2FCF9167
:1013A00008950F931F93CF93DF9300D0CDB7DEB78F
:1013B00061E083E10E941F021A8219826FEFCE0161
:1013C00001960E94860902E010E0C8010E94CB1439
:1013D0008F3F21F06FEFC8010E94D3140F5F1F4FA2
:1013E000011584E0180789F781E090E09A838983EA
:1013F0006FEFCE0101960E94860960E083E10E94B2
:101400001F020F900F90DF91CF911F910F910895C0
:10141000CF92DF92EF92FF920F931F93CF93DF93C0
:1014200000D0CDB7DEB70E947314C12CD12C760149
:10143000CA94A70196010E94E114CB010E9489027F
:101440000E94B7088C010E94C4090817190741F1CE
:101450000E947314A70196010E94E114CB010E941F
:1014600089020E947314A70196010E94E114CB0126
:101470000E94890281E090E09A83898362E0CE0134
:1014800001960E9486090E947314A70196010E948A
:10149000E114CB010E9489020E94D1090C94000042
:1014A0000F900F90DF91CF911F910F91FF90EF90D0
:1014B000DF90CF9008951F920F920FB60F921124D4
:1014C0002F933F938F939F93AF93BF938091670325
:1014D00090916803A0916903B0916A03309166030B
:1014E00023E0230F2D3758F50196A11DB11D209340
:1014F00066038093670390936803A0936903B09396
:101500006A0380916B0390916C03A0916D03B0917D
:101510006E030196A11DB11D80936B0390936C0324
:10152000A0936D03B0936E03BF91AF919F918F9184
:101530003F912F910F900FBE0F901F90189526E8A6
:10154000230F0296A11DB11DD2CF1F920F920FB68D
:101550000F9211242F933F934F935F936F937F9339
:101560008F939F93AF93BF93CF93EF93FF93C091CC
:10157000E1008091E100837F8093E100C3FF0FC011
:101580001092E90081E08093EB001092EC0082E37E
:101590008093ED001092700388E08093F000C2FF0A
:1015A0001AC00E949E0180910E03882341F0809111
:1015B0000E03815080930E03811101C05D9A8091CA
:1015C0006F03882341F080916F03815080936F03F4
:1015D000811101C0289AC4FF23C08091E2008E7E51
:1015E00081608093E2008091E1008F7E8093E10032
:1015F00080910F038E7E806180930F03FF91EF91A6
:10160000CF91BF91AF919F918F917F916F915F919A
:101610004F913F912F910F900FBE0F901F901895F3
:10162000C0FFECCF8091E2008E7E80618093E2006B
:101630008091E1008E7E8093E10080910F038E7E89
:101640008160DACF1F920F920FB60F921124CF92C2
:10165000DF92EF92FF920F931F932F933F934F933D
:101660005F936F937F938F939F93AF93BF93EF930A
:10167000FF93CF93DF93CDB7DEB76C97DEBFCDBFBF
:101680001092E9008091E80083FF25C068E0CE0158
:1016900045960E94200482EF8093E8008D8987FFA1
:1016A00039C09091E80090FFFCCF982F907609F018
:1016B00034C19E894F89588D2F89F88C911131C082
:1016C000803861F5809110038093F1001092F10051
:1016D0008EEF8093E8006C960FB6F894DEBF0FBED5
:1016E000CDBFDF91CF91FF91EF91BF91AF919F91CE
:1016F0008F917F916F915F914F913F912F911F91AA
:101700000F91FF90EF90DF90CF900F900FBE0F9052
:101710001F9018959EEF9093E800C7CF1092F100AC
:10172000D5CF913059F48111D3CF4130510581F695
:10173000809110038D7F80931003CACF933049F4BA
:101740008111C6CF4130510519F680911003826096
:10175000F2CF953041F48091E80080FFFCCF206803
:101760002093E300B5CF963009F0A9C00B8D1C8DF6
:1017700022E01092E90010920C0310920B03F21277
:101780002EC010920A03109209030E94C1041F8206
:1017900099E09983FA8291E09E8390EA98879AEF84
:1017A000998720910B0330910C03275F3F4F3C83B7
:1017B0002B838D831092E90010920C0310920B037F
:1017C00010930A030093090349E050E0BE016F5FE4
:1017D0007F4F80E00E944F030E94C10479CF109395
:1017E0000A03009309030E945A04DC0112960D912A
:1017F0001C910115110509F451C1D801ED91FC911D
:101800000480F581E02DBE016B5E7F4FC801099514
:10181000009709F03EC1F80100851185EACFF3E099
:10182000FF120EC08F89882309F440C0823061F412
:1018300040E860E180E191E00E941C03811148CF03
:1018400081E28093EB0047CF813029F440E86BE0E0
:1018500084E091E0F1CF833099F70E945A04DC01D3
:101860001296ED90FC908E010F5F1F4F6801E114FE
:10187000F10479F0D701ED91FC910680F781E02D1C
:10188000B801C7010995080F111DF701E084F18423
:10189000EECFD8011C92F60101900020E9F73197B4
:1018A000BF016C197D0940E0C601C6CF6EEE70E045
:1018B000FB01449150E080E80E944F0309CF97302C
:1018C00009F4BECF983021F481E08093F10000CF7D
:1018D000993009F0FDCE837009F0B2CFEDE0F1E070
:1018E00081E031E096E32191222371F08093E900B9
:1018F0003093EB00DF0111972C912093EC00909333
:10190000ED008F5F873079F78EE78093EA001092C1
:10191000EA008F8980937003DBCE8B8D9C8D1092B3
:10192000E90010920C0310920B0390930A0380932A
:101930000903898D811192C08E899D89913A49F45C
:10194000813209F07DCF47E050E064E071E080E053
:10195000B3CF913209F074CF833269F48F89988DB7
:10196000B0E0A0E08093000190930101A0930201F8
:10197000B0930301ADCE803269F48091E80082FF1C
:10198000FCCF67E084E091E00E9420048BEF80931D
:10199000E8009ECE823209F09BCE8F8980930B01A6
:1019A000EEEFFFE7859194918B3F9C4D51F1E0E084
:1019B000F8E08091040190910501A0910601B09199
:1019C0000701803B9440A105B105F1F480910B0122
:1019D00080FD1AC0EE3F8AE0F80789F587E797E7B0
:1019E000918380838091600080930D0388E19BE068
:1019F0000FB6F894A895809360000FBE9093600096
:101A000067CEEEEFFAE0D5CF808191818737974797
:101A100009F05ECEA8958091600088618093600097
:101A200080910D0380936000EE3F2AE0F20789F079
:101A30008091FE0A9091FF0A9183808349CE808134
:101A400091818737980751F29093FF0A8093FE0A9D
:101A5000C5CF1092FF0A1092FE0A3ACE0E945A0495
:101A6000DC0112960D911C910115110509F4E8CEC7
:101A7000D801ED91FC910190F081E02DBE016B5EEB
:101A80007F4FC8010995811123CEF801008511858A
:101A9000EBCF181619060CF41BCED2CEF1E0FF12D4
:101AA000BECE62EF70E004CF1F920F920FB60F927E
:101AB00011242F933F934F935F936F937F938F9353
:101AC0009F93AF93BF93EF93FF9381E793E00E94BF
:101AD0004305FF91EF91BF91AF919F918F917F91BE
:101AE0006F915F914F913F912F910F900FBE0F908B
:101AF0001F9018951F920F920FB60F9211242F93DB
:101B00008F939F93EF93FF93E0918103F091820372
:101B10008081E0918703F091880382FD1BC0908152
:101B200080918A038F5F8F7320918B03821741F01E
:101B3000E0918A03F0E0EF58FC4F958F80938A0381
:101B4000FF91EF919F918F912F910F900FBE0F906A
:101B50001F9018958081F4CF1F920F920FB60F92AD
:101B600011242F933F934F935F936F937F938F93A2
:101B70009F93AF93BF93EF93FF93E0911303F09183
:101B80001403309749F0A685B7858585968D91FF1A
:101B900014C09C918923A1F4FF91EF91BF91AF9163
:101BA0009F918F917F916F915F914F913F912F9175
:101BB0000F900FBE0F901F9018959C91892361F78D
:101BC000A389B4899C918589809589238C93868982
:101BD00097890197F1F7608D718DA685B785558539
:101BE00038E020E0CB010197F1F7822F90E0959546
:101BF0008795282F4C91452309F02068315091F7A3
:101C0000868D81FD20958091120390E001968F735F
:101C1000992730911103381799F0A0911203B0E081
:101C2000A354BD4F2C9380931203828D938D019703
:101C3000F1F7A389B4898C919589892B8C93ACCFCA
:101C4000868D8160868FF1CF0C94D314CF93109240
:101C500074031092730388EE93E0A0E0B0E08093E9
:101C6000750390937603A0937703B09378032BE1E9
:101C700031E030937203209371032DEC30E0309308
:101C80007E0320937D032CEC30E03093800320937F
:101C90007F0328EC30E0309382032093810329EC0A
:101CA00030E030938403209383032AEC30E03093B8
:101CB0008603209385032EEC30E030938803209335
:101CC000870310928A0310928B0310928C03109258
:101CD0008D031092110410921004809312049093BB
:101CE0001304A0931404B09315048DE291E0909333
:101CF0000F0480930E048FEF9FEF90931B0480934B
:101D00001A0410928804109287048BE491E0909357
:101D100086048093850480917D04811113C0109204
:101D20007804109277048EEC91E090937A0480937B
:101D300079048FE290E090937C0480937B0481E0AF
:101D400080937D0480916F0481112AC0C1E0C0930B
:101D50006204C093630488E694E0909365048093E2
:101D6000640410926704109266048FE391E09093EC
:101D70005F0480935E0410926A04109269041092CA
:101D80006C0410926B04C0936D04C0936E0481ECDC
:101D9000809368040E945A040E945801C0936F0403
:101DA000E0916904F0916A04309709F08CC087E7EC
:101DB00094E090936A048093690480916B049091FD
:101DC0006C0420917B0430917C04820F931F9093CC
:101DD0006C0480936B048EE491E090939204809362
:101DE00091048EB38093B2041092960410929504DD
:101DF00088EE93E0A0E0B0E080939704909398047D
:101E0000A0939904B0939A0487E591E09093940489
:101E1000809393041092AA041092A9041092AC0427
:101E20001092AB041092AE041092AD041092B00464
:101E30001092AF046091B1046E7F6D7F6093B10426
:101E40006695617081E0682780E10E941F0261E071
:101E500080E10E944D02E8E4F2E0E491E093A30403
:101E6000E9E2F2E0E491F0E0EE0FFF1FE55FFD4FE5
:101E7000859194919093A5048093A40460E08EE0F2
:101E80000E944D028091B10481FD04C061E08EE0AA
:101E90000E941F028EE080939F04E6E4F2E0E4914A
:101EA000E093A004E7E2F2E0E491F0E0EE0FFF1F20
:101EB000E350FE4F859194919093A2048093A104E6
:101EC000CF910895FC01808191810097D9F787E730
:101ED00094E09183808371CFCF93DF9300D0CDB70F
:101EE000DEB7789484B5826084BD84B5816084BD9A
:101EF00085B5826085BD85B5816085BD80916E00A8
:101F0000816080936E0010928100809181008260D8
:101F10008093810080918100816080938100809115
:101F20008000816080938000809191008260809326
:101F30009100809191008160809391008091900048
:101F40008160809390008091C10084608093C10083
:101F50008091C10082608093C1008091C100816046
:101F60008093C1008091C30081608093C300809101
:101F7000C00082608093C0008091C2008160809325
:101F8000C20080917A00846080937A0080917A0008
:101F9000826080937A0080917A00816080937A00D9
:101FA00080917A00806880937A001092700310927A
:101FB000100310920F038091D70081608093D700A7
:101FC00080EA8093D80089B5806189BD89B5826037
:101FD00089BD09B400FEFDCF61E070E080E090E0D3
:101FE0000E94B9028091D8008F7C80618093D800D4
:101FF0008091E000807F8093E0008091E1008E7E00
:102000008093E1008DE08093E200559A209A61E090
:1020100082E10E944D0261E083E10E944D0261E095
:1020200084E10E944D0212E062E0812F0E944D0285
:102030001F5F1C30C9F790E080E00E949F098F3F2E
:1020400009F488C00E94C4098C010E94B7080817CF
:10205000190709F07FC060E084E10E941F0261E07F
:1020600083E10E941F0281E090E09A83898360E00F
:10207000CE0101960E94860990E080E00E949F09AF
:10208000813009F002C10E94080A68E97AE380E021
:1020900090E00E94B9020E94080A8EE491E09093B9
:1020A0009204809391040E94080A1092E10080E15A
:1020B0008093E2000E94080A0E94A1090E94080A77
:1020C00065E273E085E894E00E94840964EF71E0C2
:1020D00080E090E00E94B90260EB85E894E00E9405
:1020E000F80764EF71E080E090E00E94B9020E947E
:1020F000080A809115038823B9F065E173E085E84B
:1021000094E00E94840964EF71E080E090E00E9416
:10211000B90260EB85E894E00E94F80764EF71E093
:1021200080E090E00E94B9020E946E09082F64E6E8
:1021300070E080E090E00023A9F30E946E09182F60
:10214000882309F458C064E670E080E090E00E94C3
:10215000B902F3CF61E082E10E941F0260E083E1F7
:102160000E941F0260E084E10E941F0281E090E073
:102170000E949F0981110BC061E081E090E00E9404
:10218000240E60ED77E080E090E00E94B90262E00A
:1021900081E090E00E94240E0E94D1098FEF9FEF12
:1021A00090931B0480931A04F12C10E000E035E0BA
:1021B000C32ED12CE0900B016AE070E080E090E04B
:1021C0000E94B902E1106EC10F5F1F4FC801B60136
:1021D0000E944415892B41F4F1105EC161E082E157
:1021E0000E941F02FF24F39462E370E080E090E01D
:1021F0000E94B902DFCFF12CE12C55E0C52ED12C85
:102200000E946E0981111DC08FEFE81AF80AC701FC
:10221000B6010E944415892B39F411110CC061E0FC
:1022200083E10E941F02102F62E370E080E090E0E3
:102230000E94B902E5CF60E083E10E941F0210E036
:10224000F3CF0E946E09882339F064E670E080E0E5
:1022500090E00E94B902F5CF60E083E10E941F0286
:1022600061E084E10E941F020E946E09882331F020
:102270000E946E098111FCCF0C94000064E670E0AE
:1022800080E090E00E94B902EFCF823009F0AFC049
:102290000E94080A8091B20480FF58C060E177E292
:1022A00080E090E00E94B9020E94080A8EE491E06A
:1022B00090939204809391040E94080A1092E10086
:1022C00080E18093E2000E94080A0E94A1090E9416
:1022D000080AF12C10E000E045E0C42ED12C0E9449
:1022E0006E0981111DC00F5F1F4FC801B6010E940A
:1022F0004415892B41F4F1100DC061E083E10E9487
:102300001F02FF24F39462E370E080E090E00E94FB
:10231000B902E5CF60E083E10E941F02F12CF3CF08
:102320000E946E09882339F064E670E080E090E056
:102330000E94B902F5CF88E19EE00FB6F894A89507
:10234000809360000FBE90936000FFCF8091B20435
:1023500083FF55C260E67AEE80E090E00E94B90209
:102360000E94080A8EE491E0909392048093910475
:102370000E94080A1092E10080E18093E2000E942E
:10238000080A0E94A1090E94080A65E273E085E834
:1023900094E00E94840964EF71E080E090E00E9484
:1023A000B90260EB85E894E00E94F80764EF71E001
:1023B00080E090E00E94B90260E083E10E941F0289
:1023C00061E084E10E941F0215E00E946E098823EB
:1023D00039F00E946E098111FCCF1EBB0C940000E5
:1023E00064E670E080E090E00E94B902EECF8330B6
:1023F00009F005C20E94080A61E083E10E941F0201
:102400006AEF70E080E090E00E94B9028EE491E013
:1024100090939204809391040E94080A6AEF70E0FE
:1024200080E090E00E94B9020E94A1090E94080A7F
:1024300065E273E085E894E00E9484090E94080A3E
:1024400064EF71E080E090E00E94B9020E94080A07
:1024500080911503882361F065E173E085E894E0DD
:102460000E94840964EF71E080E090E00E94B9026C
:1024700060EB85E894E00E94F80764EF71E080E08B
:1024800090E00E94B90260E083E10E941F0261E0D7
:1024900084E10E941F02FFCF60E082E10E941F02E0
:1024A000F12CA2CE61E082E10E941F0280910B011B
:1024B0006AE070E080E090E00E94B9021092E100D2
:1024C00080E18093E20068E671E08EE094E00E9493
:1024D0005A0960E871E08EE094E00E945A0964ECC9
:1024E00071E08EE094E00E945A0961E072E08EE0B3
:1024F00094E00E945A090E949E0125E0C22ED12C30
:102500008EE094E00E944306892BE9F40F5F1F4F91
:10251000C801B6010E944415892B41F4F1100DC089
:1025200061E082E10E941F02FF24F39462E370E005
:1025300080E090E00E94B902E3CF60E082E10E9477
:102540001F02F12CF3CF61E082E10E941F028EE0B6
:1025500094E00E944306892BD1F369E170E080E0AA
:1025600090E00E94B9028EE094E00E940106182FCC
:102570008EE094E00E944306892B29F08EE094E0DF
:102580000E940106F5CF1F7D173579F01C3409F440
:1025900078C01D3409F478C066E472E08EE094E0FF
:1025A0000E945A090E949E01D2CFFF24F3946DE548
:1025B00072E08EE094E00E945A090E949E018EE033
:1025C00094E00E944306892BD1F369E170E080E03A
:1025D00090E00E94B90204E010E08EE094E00E94D6
:1025E00001068D3019F0682F8A3009F460E0C801C7
:1025F0000E94240E0F5F1F4F0434110571F760E035
:1026000084E490E00E94240E8EE094E00E94430651
:10261000892BE9F505E410E0F0FE93C064E872E070
:102620008EE094E00E945A090E949E018EE094E0A0
:102630000E944306892BD1F369E170E080E090E0CD
:102640000E94B90205E410E08EE094E00E940106C9
:102650008D3019F0682F8A3009F460E0C8010E94BB
:10266000240E0F5F1F4F0535110571F78EE094E0C2
:102670000E944306892B81F08EE094E00E940106BF
:10268000F5CF92E0F92E93CF83E0F82E90CF8EE035
:1026900094E00E940106B8CF6F2D90E080E00E9488
:1026A000240E60E081E090E00E94240E0E94B708B2
:1026B000082F0E94B708192F602F82E090E00E9437
:1026C000240E612F83E090E00E94240E0E94A10955
:1026D0006BEB8FEF93E00E94240E64EA72E08EE0D1
:1026E00094E00E945A090E949E0160E082E10E94EB
:1026F0001F020E946E09882339F00E946E09811121
:10270000FCCF0C940000F5CF60E083E10E941F0233
:1027100061E084E10E941F0264EF71E080E090E0DC
:102720000E94B90261E083E10E941F0260E084E13F
:102730000E941F0264EF71E080E090E00E94B90205
:10274000D8CF60E0C8010E94240E0F5F1F4F0535EF
:102750001105B9F762E090E080E00E94240E60E08D
:1027600081E090E00E94240E0E94B708082F0E948A
:10277000B708192F602F82E090E00E94240E612F8D
:1027800083E090E00E94240E0E94A1096BEB8FEF82
:1027900093E00E94240E64EA72E08EE094E00E94CE
:1027A0005A090E949E0160E082E10E941F020E947D
:1027B0006E09882339F00E946E098111FCCF0C94B8
:1027C0000000F5CF60E083E10E941F0261E084E138
:1027D0000E941F0264EF71E080E090E00E94B90265
:1027E00061E083E10E941F0260E084E10E941F0219
:1027F00064EF71E080E090E00E94B902D8CF00E081
:1028000010E001151105E9F30E942F058823C9F393
:102810000E940000F6CF87E591E0909394048093A6
:10282000930480911303909114038359944071F49D
:10283000E091A604F091A70490818091A80480956E
:1028400089238083109214031092130308958F92AA
:102850009F92AF92BF92CF92DF92EF92FF92CF936F
:10286000DF93EC01688179818A819B816115710513
:102870008105910521F464E279ED8BE597E02DE186
:1028800033EF41E050E00E94E11449015A019B01FD
:10289000AC01A7EAB1E40E9400156B017C01ACEE2B
:1028A000B4EFA50194010E940E15C60ED71EE81EB6
:1028B000F91EF7FE06C081E0C81AD108E10880E8D9
:1028C000F80AC882D982EA82FB82C701B6019F77E3
:1028D000DF91CF91FF90EF90DF90CF90BF90AF90BE
:1028E0009F908F9008958F929F92AF92BF92CF92B8
:1028F000DF92EF92FF926091130170911401809129
:10290000150190911601611571058105910521F45C
:1029100064E279ED8BE597E02DE133EF41E050E0A3
:102920000E94E11449015A019B01AC01A7EAB1E4FC
:102930000E9400156B017C01ACEEB4EFA50194017F
:102940000E940E15C60ED71EE81EF91EF7FE06C021
:1029500081E0C81AD108E10880E8F80AC0921301A2
:10296000D0921401E0921501F0921601C701B60150
:102970009F77FF90EF90DF90CF90BF90AF909F90A8
:102980008F90089560931301709314018093150143
:10299000909316010895F999FECF92BD81BDF89AE2
:1029A000992780B50895262FF999FECF1FBA92BDB9
:1029B00081BD20BD0FB6F894FA9AF99A0FBE019620
:1029C0000895052E97FB1EF400940E94F81457FDFD
:1029D00007D00E94131507FC03D04EF40C94F81492
:1029E00050954095309521953F4F4F4F5F4F08953B
:1029F00090958095709561957F4F8F4F9F4F08956B
:102A00000E943515A59F900DB49F900DA49F800D39
:102A1000911D11240895B7FF0C9400150E94001514
:102A2000821B930B0895A1E21A2EAA1BBB1BFD016A
:102A30000DC0AA1FBB1FEE1FFF1FA217B307E4079D
:102A4000F50720F0A21BB30BE40BF50B661F771FF5
:102A5000881F991F1A9469F76095709580959095D5
:102A60009B01AC01BD01CF010895A29FB001B39FAE
:102A7000C001A39F700D811D1124911DB29F700D87
:102A8000811D1124911D0895AA1BBB1B51E107C094
:102A9000AA1FBB1FA617B70710F0A61BB70B881FEE
:102AA000991F5A95A9F780959095BC01CD0108957D
:102AB000EE0FFF1F0590F491E02D099411E0CDE297
:102AC000D1E004C0FE010E9458152196CE32D107F4
:102AD000C9F7F894FFCFFFFFFFFF00E100000000FF
:102AE000000000C180810000000100000000000023
:102AF0000064052D04F204B0052305010515050049
:102B0000000000E605D005FC05EC02430601061FA7
:102B100006000000000807810746072B0700000099
:102B200000F807CC07B408B3080000000075062DB4
:102B300004B408EB02D106E7065D060D0A005365F2
:102B40006C65637420456E6372797074696F6E2072
:102B50004D6F64653A002D2D3E20466F7220417501
:102B6000746F6D6174696320566572614372797028
:102B7000742053797374656D204465637279707441
:102B8000696F6E202857696E646F777329202D2036
:102B9000456E74657220275727002D2D3E20466F05
:102BA00072204175746F6D61746963204C756B732D
:102BB0002053797374656D2044656372797074690C
:102BC0006F6E20284C696E757829202D20456E7413
:102BD000657220274C27002D2D3E20466F72204D18
:102BE000616E75616C2044656372797074696F6E93
:102BF0002028456E746572732043726564656E7437
:102C000069616C73206F6E20506C7567696E292046
:102C10002D20456E74657220274D2700496E766120
:102C20006C6964204D6F64652053656C65637469DD
:102C30006F6E00456E7465722050617373776F72AA
:102C4000642028363420636861726163746572732E
:102C5000206F72206C6573732900456E7465722055
:102C600050494D2028507265737320456E7465720B
:102C7000206966206E6F6E652900436F6E66696716
:102C800075726174696F6E20636F6D706C657465C9
:102C90000000FFFFFFFFFFFFFFFFFFFFFFFFFFFF42
:102CA000FFFFFFFFFFFFFFFFFFFFFFFFFFFFFFFF34
:102CB000FFFFFFFFFFFFFFFFFFFFFFFFFFFFFFFF24
:102CC000FFFFFFFFFFFFFFFFFFFFFFFFFFFFFFFF14
:102CD000FFFFFFFFFFFFFFFFFFFFFFFFFFFFFFFF04
:107000005FC0000078C0000076C0000074C00000BF
:1070100072C0000070C000006EC000006CC00000B4
:107020006AC0000068C0000000C5000064C0000025
:1070300062C0000060C000005EC000005CC00000D4
:107040005AC00000E9C0000056C0000054C0000053
:1070500052C0000050C000004EC000004CC00000F4
:107060004AC0000048C0000046C0000044C0000004
:1070700042C0000040C000003EC000003CC0000014
:107080003AC0000038C0000036C0000034C0000024
:1070900032C0000030C000002EC000002CC0000034
:1070A0002AC0000028C0000026C00000803E993E93
:1070B000453F993E453FD13EF33E453F133F253F77
:1070C00011241FBECFEFDAE0DEBFCDBF11E0A0E09C
:1070D000B1E0E8E3FFE702C005900D92A43AB107E2
:1070E000D9F721E0A4EAB1E001C01D92AA3BB207A2
:1070F000E1F762D31FC784CF84E08093E9008091D9
:10710000E80085FD0DC08091E8008B778093E80052
:107110008091E80082FDF3CF8EB38111F9CF02C0D8
:107120008091F100089593E09093E9009091E80038
:1071300095FF0AC08093F1008F9A84E690E09093C7
:10714000A9018093A80108959091E8009E779093FB
:10715000E8009091E80090FDEDCF9EB39111F9CF3A
:107160000895F89410926F0010928100109285009B
:107170001092840081E085BF15BE47988F988E9845
:107180000C94000008952091AE013091AF012F5F63
:107190003F4F3093AF012093AE01832F37FF02C0E2
:1071A0008EEF831B3327880F90E08217930714F428
:1071B00047980895479A089584B7877F84BF0FB68C
:1071C000F894A89580916000886180936000109287
:1071D00060000FBE90E880E00FB6F89490936100D5
:1071E000809361000FBE81E085BF82E085BF3F9A3A
:1071F000869A879AE1E6F0E09083108247988F980C
:107200008E98109289009AEF9093880080936F0077
:1072100083E08093810008951F920F920FB60F9222
:1072200011242F938F939F93EF93FF9310928500D8
:10723000109284008091A8019091A901009741F0DB
:1072400001979093A9018093A801892B09F48F9845
:107250008091A6019091A701009741F0019790932A
:10726000A7018093A601892B09F48E98E0E0F0E055
:1072700085919491019649F08091A4019091A50186
:1072800001969093A5018093A401FF91EF919F91A6
:107290008F912F910F900FBE0F901F90189542E085
:1072A00061EC82E03FD342E161E883E03BD342E11D
:1072B00060E884E037C38091B201982F9F779132C4
:1072C00039F59091B301903291F0913209F5813AFC
:1072D000F9F48091E800877F8093E80067E070E030
:1072E00083E091E053D48091E8008B770FC0813226
:1072F00079F48091E800877F8093E80067E070E090
:1073000083E091E09BD48091E8008E778093E80041
:1073100008954F925F926F927F928F929F92AF9259
:10732000BF92CF92DF92EF92FF920F931F93CF9372
:10733000DF9384E08093E9008091E80082FF2BC214
:107340008E9A84E690E09093A7018093A601D4DE04
:10735000C82F853481F48CE89CE39093A501809339
:10736000A40107B600FCFDCFF999FECF81E180931F
:107370005700E89503C0843521F4BEDE8DE0D3DEEE
:10738000E1C18C34D9F38035C9F3843721F484E426
:10739000CADE80E0F4CF813611F489E5F0CF813484
:1073A00091F4AADEC82FA8DE2C2F30E0322F22273E
:1073B000330F90E0880F991F822B932B092E000C1E
:1073C000AA0BBB0B93C1803711F483E5D8CF83356B
:1073D00049F4CCE9D1E08991A6DE21E0C33AD20795
:1073E000D1F7B0C1863521F481E39DDE80E3C7CFBC
:1073F000833731F487E897DE85E995DE8EE1BFCFEC
:107400008536B9F4E0E0F0E083E095E08093570042
:10741000E89507B600FCFDCF90935700E89507B6B6
:1074200000FCFDCFE058FF4FE11540E7F40771F78E
:10743000A5CF823719F4E1E0F0E00EC0863419F4EC
:10744000E0E0F0E009C08E3419F4E3E0F0E004C0BD
:10745000813539F4E2E0F0E089E0809357008491CF
:107460008ECF823631F489E55EDE80E05CDE80E836
:1074700086CF823419F0873609F0D0C01092A5016A
:107480001092A40139DE082F37DED82F35DE182FF1
:107490008BEB810F823010F08FE371CF8D2F90E056
:1074A000902B10926F00C73609F042C021E1209363
:1074B0005700E895EC01B12C01E0209709F4AAC02F
:1074C000C090AA01D090AB01E090AC01F090AD016A
:1074D0001634B9F4EB2DF0E0EC29FD29849123DE7C
:1074E000BB2069F052E0C50ED11CE11CF11CC0921A
:1074F000AA01D092AB01E092AC01F092AD01B026AE
:1075000015C0D701C601B695A79597958795EAD47A
:107510000ADE82E0C80ED11CE11CF11CC092AA0157
:10752000D092AB01E092AC01F092AD012197C5CFB2
:107530008090AA019090AB01A090AC01B090AD01F9
:10754000163441F423E0F40120935700E89507B680
:1075500000FCFDCFE12CF12CEC0101E0209709F4B7
:107560004DC0163439F5FF2009F14090AA01509022
:10757000AB016090AC017090AD01BEDD2E2D30E00E
:10758000A901582BF2010A0100935700E895112434
:10759000F2E04F0E511C611C711C4092AA015092E6
:1075A000AB016092AC017092AD0102C0A5DDE82E86
:1075B000F02622C0A1DD682F8091AA019091AB0135
:1075C000A091AC01B091AD01B695A795979587951F
:1075D000A3D48091AA019091AB01A091AC01B0918C
:1075E000AD010296A11DB11D8093AA019093AB013C
:1075F000A093AC01B093AD012197B0CF163441F404
:1076000085E0F40180935700E89507B600FCFDCFB4
:107610008DE089DD82E080936F0094C0833471F443
:10762000C091AA01D091AB0167DD90E021E0FE019D
:107630000C0120935700E8951124A0CE833601F564
:10764000C090AA01D090AB01E090AC01F090AD01E8
:1076500053DDF601E16090E021E00C01209357003A
:10766000E8951124F2E0CF0ED11CE11CF11CC09270
:10767000AA01D092AB01E092AC01F092AD017ECEB6
:107680008D3661F4E091AA01F091AB0185E0809321
:107690005700E89507B600FCFDCF70CE823551F457
:1076A000E091AA01F091AB01C591D4918D2F3BDD02
:1076B0008C2F65CE843419F51FDD682F8091AA01C7
:1076C0009091AB01A091AC01B091AD01B695A79599
:1076D0009795879521D48091AA019091AB01A091B3
:1076E000AC01B091AD010296A11DB11D8093AA011C
:1076F0009093AB01A093AC01B093AD013FCE843623
:10770000F1F4C090AA01D090AB01E090AC01F090F0
:10771000AD01D701C601B695A79597958795E2D398
:1077200002DD22E0C20ED11CE11CF11CC092AA01B4
:10773000D092AB01E092AC01F092AD0103C08B316D
:1077400009F0AACE83E08093E9009091E80080914F
:10775000E8008E778093E80095FD11C08091E800E5
:1077600080FD04C08EB38111F9CF15C08091E8006F
:107770008E778093E80003C08EB3882361F08091F8
:10778000E80080FFF9CF84E08093E9008091E80071
:107790008B778093E800DF91CF911F910F91FF903D
:1077A000EF90DF90CF90BF90AF909F908F907F90A1
:1077B0006F905F904F900895EF92FF921F93CF9339
:1077C000DF93E0900008F0900108109201081092F9
:1077D000000814B71EBB14BE0FB6F894A89580918C
:1077E0006000886180936000109260000FBE81E0AD
:1077F00090E078D382508D3F90F46FEF80E090E07E
:1078000079D3C2E0D0E06FEFCE0174D32196C115D9
:1078100024E0D207C1F76FEF81E090E06BD310FF57
:1078200008C0E0E0F0E085919491019611F099DCB8
:1078300021C013FF0DC08091000190910101E81655
:10784000F90631F0E0E0F0E085919491019679F746
:107850006FEF80E090E04ED3C2E0D0E06FEFCE015A
:1078600049D32196C11584E0D807C1F76FEF81E0B5
:1078700090E040D3A1DCC1D078941092A501109281
:10788000A40180910201882369F043DD14D3809123
:10789000A4019091A50181389E4310F0109202013D
:1078A00072DCEFCF8091E00081608093E00059DCD2
:1078B00080E090E0DF91CF911F91FF90EF900895CD
:1078C000292F30E02230310559F02330310569F09D
:1078D00021303105F9F482E190E02AE831E01EC060
:1078E0008EE390E02CE431E019C0882349F0813028
:1078F00061F0823079F488E190E02AE031E00EC056
:1079000084E090E028E431E009C082E290E024E2E3
:1079100031E004C080E090E020E030E0FA01318303
:10792000208308958093E900EBEEF0E08081816090
:107930008083EDEEF0E010826093EC004083809154
:10794000EE00881F8827881F08958091B20187FF65
:107950000FC08091E80082FD04C08EB38111F9CF81
:1079600010C08091E8008B770AC08EB3882349F05D
:107970008091E80080FFF9CF8091E8008E778093B6
:10798000E80008950F931F93CF93DF9341D048D021
:10799000C8EDD0E088818F7788838881806888836C
:1079A00088818F7D888319BC1EBA1092B00100EEC9
:1079B00010E0F80180818B7F8083888181608883DB
:1079C00042E060E080E0AEDFE1EEF0E080818E7FBB
:1079D0008083E2EEF0E08081816080838081886036
:1079E0008083F80180818E7F808388818061888395
:1079F000DF91CF911F910F910895E7EDF0E0808125
:107A0000816080838AE482BF81E08093B101BACF34
:107A1000E8EDF0E080818E7F80831092E20008958F
:107A20001092DA001092E10008951F920F920FB6A3
:107A30000F9211242F933F934F935F936F937F93F4
:107A40008F939F93AF93BF93EF93FF938091DA004F
:107A500080FF1BC08091D80080FF17C08091DA00A2
:107A60008E7F8093DA008091D90080FF0BC080E187
:107A700089BD82E189BD09B400FEFDCF81E08EBBE6
:107A800019D203C019BC1EBA15D28091E10080FF43
:107A900017C08091E20080FF13C08091E2008E7FCA
:107AA0008093E2008091E20080618093E200809107
:107AB000D80080628093D80019BC85E08EBBFAD1D3
:107AC0008091E10084FF2CC08091E20084FF28C0F7
:107AD00080E189BD82E189BD09B400FEFDCF8091BE
:107AE000D8008F7D8093D8008091E1008F7E8093B5
:107AF000E1008091E2008F7E8093E2008091E200BD
:107B000081608093E2008091B001811106C0809174
:107B1000E30087FD02C081E001C084E08EBBCAD1D2
:107B20008091E10083FF21C08091E20083FF1DC0AE
:107B30008091E100877F8093E10082E08EBB10920C
:107B4000B0018091E1008E7F8093E1008091E2009E
:107B50008E7F8093E2008091E20080618093E2005A
:107B600042E060E080E0DEDEA5D1FF91EF91BF91C1
:107B7000AF919F918F917F916F915F914F913F91C5
:107B80002F910F900FBE0F901F9018952091B80164
:107B90003091B9012617370748F06115710539F49E
:107BA0002091E8002E772093E80001C0B901FC0184
:107BB00020E06115710571F18EB38823D9F185300C
:107BC000D9F18091E80083FD33C08091E80082FD07
:107BD00029C08091E80080FFECCF2091F3008091D4
:107BE000F20090E0922B6115710551F088309105FB
:107BF00038F421912093F100615071090196F3CF7F
:107C000021E0089709F020E08091E8008E778093CA
:107C1000E800CFCF2111D0CF05C08EB3882351F01B
:107C2000853051F08091E80082FFF7CF80E0089521
:107C300081E0089582E0089583E00895611571055B
:107C400029F42091E8002B772093E800FC016115CE
:107C5000710531F18EB3882359F1853059F1809146
:107C6000E80083FD23C08091E80082FFF0CF2091DF
:107C7000F3008091F20090E0922B892B31F08091FB
:107C8000F10081936150710991F78091E8008B7741
:107C90008093E800DCCF8EB3882351F0853051F01B
:107CA0008091E80080FFF7CF80E0089581E008959B
:107CB00082E0089583E008950F931F93CF93DF939D
:107CC00000D0CDB7DEB7E2EBF1E08AEB91E0209196
:107CD000F10021938E179F07D1F7EDDA8091E8002C
:107CE00083FFD3C08091B2019091B301492F50E03E
:107CF0004A30510508F0C9C0FA01EA5AF74CECC005
:107D0000823809F0C2C08091B60187708093E90083
:107D10008091EB001092E9009091E800977F90939A
:107D2000E80085FB882780F98093F1001092F1002C
:107D300085C0282F2D7F09F0A8C0823009F0A5C08A
:107D40008091B401811127C08091B601877009F438
:107D50009CC08093E9002091EB0020FF1CC0933071
:107D600021F48091EB00806214C09091EB0090614F
:107D70009093EB0021E030E0A90102C0440F551FB1
:107D80008A95E2F74093EA001092EA008091EB00B6
:107D900088608093EB001092E9008091E800877F73
:107DA00050C0811172C01091B4011F770FB7F894C1
:107DB0008091E800877F8093E800C7DD8091E8002C
:107DC00080FFFCCF8091E3008078812B8093E300DB
:107DD00080688093E300111102C082E001C083E05B
:107DE0008EBB0FBF52C08058823008F04EC0AE012B
:107DF0004F5F5F4F6091B6018091B4019091B501E2
:107E00005FDDBC01892B09F440C09091E800977FA9
:107E10009093E80089819A81B9DE8091E8008B77A0
:107E20008093E80032C0803881F58091E800877F38
:107E30008093E8008091B0018093F1008091E80088
:107E40008E778093E80081DD20C081111EC0809173
:107E5000B4019091B50199270297BCF48091E80094
:107E6000877F8093E8008091B4018093B0016DDD3D
:107E70008091B001811106C08091E30087FD02C0AE
:107E800081E001C084E08EBB0ADA8091E80083FFC4
:107E90000AC08091EB0080628093EB008091E80043
:107EA000877F8093E8000F900F90DF91CF911F9113
:107EB0000F9108950895CF938EB3882359F0C09100
:107EC000E900C7701092E9008091E80083FDF4DEBC
:107ED000C093E900CF910895EE0FFF1F0590F49134
:107EE000E02D0994F999FECF92BD81BDF89A9927AA
:107EF00080B50895262FF999FECF92BD81BDF89ADD
:107F0000019700B4021639F01FBA20BD0FB6F894DD
:107F1000FA9AF99A0FBE0895262FF999FECF1FBA43
:107F200092BD81BD20BD0FB6F894FA9AF99A0FBEA2
:107F300001960895F894FFCF7777010000000000C4
:107F40000008180341006E0079006B00650079009D
:107F50002000620076006200610000002203410000
:107F60006E0079004B0065007900200020002000A1
:107F70002000200020002000200020002000000021
:107F80000403090409023E000201008032090400D2
:107F9000000102020100052400100104240204056E
:107FA00024060001070582030800FF0904010002FE
:107FB0000A000000070504021000010705830210F3
:107FC00000011201100102000008412336000100E7
:107FD00002010001414E594B45592000FFFFFFFFB0
:107FE000FFFFFFFFFFFFFFFFFFFFFFFFFFFFFFFFA1
:107FF000FFFFFFFFFFFFFFFFFFFFFFFFFFFFFFFF91
:00000001FF
