:020000040000FA
:100000000C943D010C9465010C9465010C94650100
:100010000C9465010C9465010C9465010C946501C8
:100020000C9465010C94ED0B0C943E090C94BB09E7
:100030000C9465010C9465010C9465010C946501A8
:100040000C9465010C9465010C9465010C94650198
:100050000C9465010C9465010C9465010C94F408F2
:100060000C9465010C9465010C9465010C94650178
:100070000C9465010C9465010C9465010C94650168
:100080000C9465010C9465010C9465010C94650158
:100090000C9465010C9465010C9465010C94650148
:1000A0000C9465010C9465010C946501080B000229
:1000B0000202000009040000010202000005240001
:1000C0001001052401010104240206052406000193
:1000D0000705810310004009040100020A00000026
:1000E00007050202400000070583024000000403E8
:1000F000090412010002EF020140C016E1050001EF
:10010000010203017777772E64656669616E636526
:100110006469676974616C2E75730075424144208F
:1001200062792044656669616E6365204469676928
:1001300074616C00070605040100080A0B0C0D0928
:1001400000000000240027002A002D0030000000DD
:10015000000200090F0000030401000C0000000071
:10016000000000000000000000000000000000008F
:1001700000000000002A2B28000000000000000002
:10018000000000000000000000000000002C9EB4F1
:10019000A0A1A2A434A6A7A5AE362D3738271E1FCE
:1001A00020212223242526B333B62EB7B89F848579
:1001B000868788898A8B8C8D8E8F90919293949567
:1001C000969798999A9B9C9D2F3130A3AD35040545
:1001D000060708090A0B0C0D0E0F10111213141547
:1001E000161718191A1B1C1DAFB1B0B5000501096F
:1001F00006A1018502050719E029E715002501750B
:100200000195088102950175088103950675081509
:100210000025730507190029738100C00000000044
:100220002300260029002C002F00000000002500DC
:1002300028002B002E0031000404040404030405EC
:100240000202020204030202020206060606060673
:100250000404020202040404080201104080401059
:1002600020408040800802040180402010020110DC
:10027000801020404020420DDD1111241FBECFEF21
:10028000DAE0DEBFCDBF12E0A0E0B1E0EAE7F6E2DF
:1002900002C005900D92A03DB107D9F724E0A0ED72
:1002A000B2E001C01D92AA32B207E1F711E0CCE33F
:1002B000D1E004C02197FE010E942A13CB33D1075D
:1002C000C9F70E944A0E0C9430130C94000083E08E
:1002D0008093E9008091F200882319F08AE38093EB
:1002E000E8000895FC0180918403882311F13FB751
:1002F000F89482E08093E9002091F200822F90E050
:100300001816190614F481E090E0882339F0289833
:1003100044E6409383034091F1004083222339F067
:100320002091F200211103C02BE62093E8003FBF8B
:1003300008958FEF9FEF0895CF93DF93FC018181A4
:100340009091D903482F490F5527551F4830510523
:100350009CF5A281B381109709F525ED33E0338335
:10036000228320812093D7038093D8038091DA03DE
:10037000820F80832091DB03A22FB091DC038A2FB0
:10038000821B8917E8F481813D91C82FD0E0C45FBA
:10039000DE4F38838F5F8183F2CFD90118962D917C
:1003A0003C91199721153105C1F725ED33E01996D8
:1003B0003C932E931897D5CF80E0DF91CF9108958D
:1003C00081E0FBCF81508F3008F047C0E82FF0E08C
:1003D000E451FE4F0C942A1309020D02FB010102A5
:1003E00005022D022D022D02100216021A021E0213
:1003F00024022D022802809180008F778093800054
:100400000895809180008F7DF9CF80918000877F53
:10041000F5CF84B58F7784BD089584B58F7DFBCFEC
:10042000809190008F778093900008958091900044
:100430008F7DF9CF80919000877FF5CF8091C000AC
:100440008F778093C00008958091C0008F7DF9CF91
:100450008091C200877F8093C20008951F93CF933D
:10046000DF93282F30E0F901E25BFE4F8491F90120
:10047000E95AFD4FD491F901E85CFD4FC491CC23BA
:10048000A9F0162F81110E94E201EC2FF0E0EE0F8F
:10049000FF1FE65DFD4FA591B4918FB7F894EC91E5
:1004A000111108C0D095DE23DC938FBFDF91CF916F
:1004B0001F910895DE2BF8CFCF93DF9390E0FC01DE
:1004C000E95AFD4F2491885C9D4FFC01849188235B
:1004D000C9F090E0880F991FFC01E05CFE4FA591E8
:1004E000B491FC01E65DFD4FC591D49161110DC041
:1004F0009FB7F8948C91209582238C938881282330
:1005000028839FBFDF91CF910895623051F49FB748
:10051000F8943C91822F809583238C93E8812E2B35
:10052000EFCF8FB7F894EC912E2B2C938FBFEACF9F
:100530008251E82FF0E0EC5CFE4FE49190917B005B
:100540008E2F880F880F80729F7D892B80937B0070
:10055000E770E064E0937C0080917A00806480938F
:100560007A0080917A0086FDFCCF8091780090918E
:10057000790008953FB7F89480917F0390918003AC
:10058000A0918103B091820326B5A89B05C02F3F9F
:1005900019F00196A11DB11D3FBFBA2FA92F982FA9
:1005A0008827BC01CD01620F711D811D911D42E0A4
:1005B000660F771F881F991F4A95D1F708958F926C
:1005C0009F92AF92BF92CF92DF92EF92FF926B0118
:1005D0007C010E94BA024B015C01C114D104E10408
:1005E000F104B9F00E94BA02681979098A099B09D5
:1005F000683E73408105910580F321E0C21AD1085D
:10060000E108F10888EE880E83E0981EA11CB11C59
:10061000E4CFFF90EF90DF90CF90BF90AF909F908E
:100620008F90089508950C94670140911F03509195
:10063000200320911D0330911E0342175307B4F489
:100640009091E8009570E1F39091E80092FD19C057
:100650008093F10080911F039091200301968F7386
:100660009927892B19F48EEF8093E80080911F035E
:100670009091200301969093200380931F0381E0C3
:10068000089580E00895EF92FF920F931F93CF9308
:10069000DF93F82E192FE62E042F81E0860F880FA6
:1006A0000E94150383E00E941503CF2DD12FEC0E7D
:1006B000FD2EF11CCE15DF05B9F007FF13C0FE01BA
:1006C00084910E941503182F80E00E941503812356
:1006D00021968111EFCFDF91CF911F910F91FF9064
:1006E000EF9008958881EDCF81E0F5CFDF92EF9212
:1006F000FF920F931F93CF93DF93D82E8A01EB01C4
:100700007B01E40EF51ECE15DF0559F0D7FE12C0B1
:10071000FE0184910E94150321968111F4CF0FEF01
:100720001FEFC801DF91CF911F910F91FF90EF90C4
:10073000DF9008958881EECF2FB7F894877080936B
:10074000E9009091E800892F807295FF04C0909194
:10075000F20080E4891B2FBF08957F928F929F92B1
:10076000AF92BF92CF92DF92EF92FF920F931F93BF
:10077000CF93DF93C82E8B017A018091840381117E
:1007800010C08FEF9FEFDF91CF911F910F91FF90DE
:10079000EF90DF90CF90BF90AF909F908F907F9021
:1007A00008958091230380FF05C08091E00082605E
:1007B0008093E000CE2DDF2DD12C8AEFB82E8C2D2A
:1007C0008770982E8C2D8072882E8C2D8074782EB8
:1007D0009AE3A92E209719F4DD2009F452C08C2D3C
:1007E0000E949C0381110AC0BA94BB2051F261E0BF
:1007F00070E080E090E00E94DF02ECCF8C171D06D5
:1008000011F00CF08C2F9FB7F8949092E900209192
:10081000E80025FD02C09FBFDDCF282F30E0C21BBE
:10082000D30B882029F08150A0F01092F100FBCF6B
:10083000F801C7FC0AC0815050F041914093F1008B
:10084000FACF44914093F10031968150D0F7020FD6
:10085000131FDD2021F0A092E800D12CDCCF809185
:10086000E80085FD07C0A092E800DD24D39420971E
:1008700091F2F3CF209779F6772069F2A092E80001
:10088000CACF5D9884E680932203C7017CCF615074
:1008900030F02091F100FC0120830196F8CF2898D8
:1008A00084E6809383030895AF92BF92CF92DF9244
:1008B000EF92FF920F931F93CF93DF936C017B0115
:1008C0008B01040F151FEB015E01AE18BF08C017A6
:1008D000D10759F06991D601ED91FC910190F08119
:1008E000E02DC6010995892B79F7C501DF91CF91DC
:1008F0001F910F91FF90EF90DF90CF90BF90AF903E
:1009000008958091150381110DC082E08093110339
:1009100084E080931203109214031092130381E079
:100920008093150381E193E00895EF92FF921F9366
:10093000CF93DF931F92CDB7DEB77C018091E603A2
:1009400081112AC011E01093D9031093DA038FEDBF
:1009500093E09093DC038093DB031092DE0310920C
:10096000DD038DE291E09093D6038093D50310923E
:10097000E1031092E0031092E3031092E20310935C
:10098000E4031093E50381EC8093DF030E9481046C
:100990000E949C011093E60382E0898341E050E0CD
:1009A000BE016F5F7F4F8091D8030E94AD0397FD1A
:1009B00008C08091D80348E050E0B70180640E94ED
:1009C000AD030F90DF91CF911F91FF90EF900895AD
:1009D0000F931F93CF93DF931F92CDB7DEB782E0C3
:1009E000898342E450E06CEA70E080E80E9476037C
:1009F0000E948104DC0112960D911C9101151105D4
:100A000089F0D801ED91FC910280F381E02DBE01C7
:100A10006F5F7F4FC801099597FD04C0F8010085FD
:100A20001185ECCF89810F90DF91CF911F910F91AC
:100A30000895CF93DF93EC0180910B01882331F06F
:100A400083E00E94AD031816190634F081E090E0AF
:100A50009B838A8380E090E0DF91CF910895CF93CC
:100A6000DF931F92CDB7DEB76983DC01ED91FC9176
:100A70000280F381E02D41E050E0BE016F5F7F4FC7
:100A800009950F90DF91CF91089583E00E949C0318
:100A900090E00895CF93DF931F92CDB7DEB7FC01AE
:100AA0008485958597FD08C02FEF3FEF3587248714
:100AB0000F90DF91CF910895CE0101960E947201AF
:100AC000019719F4898190E0F3CF8FEF9FEFF0CF7A
:100AD0000F931F93CF93DF931F92CDB7DEB78C0197
:100AE000FC018485958597FF0BC0CE0101960E947D
:100AF0007201019771F4898190E0F80195878487EC
:100B0000F801848595850F90DF91CF911F910F910A
:100B100008958FEF9FEFF1CFFC018485958597FDB8
:100B20000BC09FB7F89482E08093E9008091F200B7
:100B30009FBF90E0019608959FB7F89482E080935C
:100B4000E9008091F2009FBF90E008952091270373
:100B5000309128032817390771F49091250380916B
:100B60002603981741F0E0912503F0E0EF52FD4F86
:100B7000808190E008958FEF9FEF0895EF92FF92AC
:100B80000F931F93CF93DF93DC015C96ED90FC9065
:100B90005D97E114F10479F481E090E013969C9361
:100BA0008E93129790E080E0DF91CF911F910F918B
:100BB000FF90EF9008955196ED91FC9152975096C9
:100BC0008C915097982F90950FB75E962C915E97C9
:100BD000122F127021FD6095F8942081112319F1D4
:100BE000282B2083E7012197F1F728E0462F50E0DA
:100BF000308160FF1AC0382B3083E7012197F1F76D
:100C0000BA0175956795215089F7112381F080818C
:100C1000892380830FBF5C968D919C910197F1F79A
:100C200081E090E0C1CF2923DCCF3923E5CF90814B
:100C3000892BEFCF209127033091280328173907FC
:100C400061F4809126032091250390E0805C9F4F02
:100C5000821B91098F739927089590E080E0089591
:100C6000209127033091280328173907B9F4909170
:100C7000250380912603981789F0E0912503F0E081
:100C8000EF52FD4F80812091250330E02F5F3F4FD1
:100C90002F7333272093250390E008958FEF9FEF64
:100CA0000895DC01FB0112962C91129784819581A5
:100CB0002817190641F491818081813A31F49D7F92
:100CC00081E0913009F080E008958132E1F79B30B6
:100CD00029F482811F968C9381E008959A3099F7C8
:100CE000828150968C93F8CFDC01FB0188E48083ED
:100CF00089E4818384E482831D969C911D979F7073
:100D00009F5B93831D968D919C9124E0969587958A
:100D10002A95E1F78F708F5B848385E00895EF92C9
:100D2000FF920F931F93CF93DF93FB012081213814
:100D300071F52381223259F5DC0112964C91248100
:100D400035814217130619F5EC010B851C85F12C32
:100D5000E12C0115110589F0F8014481558162816A
:100D6000738180E80E9476038F3F980749F0E80E70
:100D7000F91ED8010D911C91ECCF81E08F87C7013E
:100D8000DF91CF911F910F91FF90EF90089590E028
:100D900080E0F6CFCF93DF93CDB7DEB769970FB67C
:100DA000F894DEBF0FBECDBFFC01DB018C918F5FDD
:100DB0008C939E012D5F3F4F8DE0D9011D928A9546
:100DC000E9F729E0298384E08A8391E09D8383E029
:100DD0008E832A8721E22B879C879D879F8722E22B
:100DE000288B27E02B8B25E02C8B8E8B20E430E0AA
:100DF000388F2F8B998F82818B8395858685998BF0
:100E00008A8B838180688D8B49E150E0BE016F5FE2
:100E10007F4F80E00E94760369960FB6F894DEBF9C
:100E20000FBECDBFDF91CF910895CF92DF92EF92A9
:100E3000FF920F931F93CF93DF936C01EB017B0124
:100E4000E40EF51E10E000E0CE15DF0581F069919B
:100E50006D30D1F3D601ED91FC910190F081E02D40
:100E6000C6010995892B19F00F5F1F4FEDCFC801FF
:100E7000DF91CF911F910F91FF90EF90DF90CF9076
:100E80000895EF92FF921F93CF93DF93EC01162FFB
:100E9000E8E7E60F683888F4862F90E067FF50C0D7
:100EA000FC01E058F10921E030E001C0220FEA9591
:100EB000EAF78C81822B8C83E0E08E818E17D9F04B
:100EC0008F81E817C1F08885E817A9F08985E817B0
:100ED00091F08A85E81779F08B85E81761F0DE01DB
:100EE000169690E080E02D9121115EC08C0F9D1F21
:100EF000DC011696EC93CE0104960E949504EE2434
:100F0000E394F12C183848F11858DE0186E01123DB
:100F100041F016969C911697191303C016961C92D1
:100F20001697815011968111F2CFCE0104960E943E
:100F30009504C701DF91CF911F91FF90EF90089525
:100F4000EC85FD85E80FF91FE491E11119C081E0FE
:100F500090E09B838A83F12CE12C812F90E017FF96
:100F60002FC0FC01E058F10981E090E001C0880F3A
:100F7000EA95EAF780959C8189238C8310E0C5CFA0
:100F80008E2F807C803C49F48C8180648C83EF734D
:100F9000E23309F092CFE4E690CFE7FFF9CF8C81FE
:100FA00082608C83EF77F4CF01968630910509F04B
:100FB0009ACF81E090E09B838A83F12CE12CA2CF31
:100FC000EC85FD85E80FF91F1491112309F4B1CFC9
:100FD000812F807C803C49F48C818F7B8C831F73B4
:100FE000123309F092CF14E690CF17FFF9CF8C811E
:100FF0008D7F8C831F77F4CF089590E080E0089573
:10100000CF92DF92EF92FF920F931F93CF93DF93D4
:10101000D0E0C0E010E000E0EE24E394F12CFE010B
:10102000E05BFE4F8491FE01E75AFD4FC490FE0144
:10103000E65CFD4FD490DD2039F181110E94E20180
:10104000ED2DF0E0EE0FFF1FE45EFD4FA591B49192
:10105000EC91CE22C9F0C7010C2E02C0880F991F57
:101060000A94E2F780959095082319232196CA30B7
:10107000D105A9F6C801DF91CF911F910F91FF9083
:10108000EF90DF90CF900895C7010C2E02C0880F1B
:10109000991F0A94E2F7082B192BE8CFFB01019066
:1010A0000020E9F73197AF01461B570BDC01ED91AA
:1010B000FC910280F381E02D09948F929F92AF9270
:1010C000BF920F931F93CF93DF93CDB7DEB7A19756
:1010D0000FB6F894DEBF0FBECDBF19A2423008F4A0
:1010E0004AE08E010F5D1F4F842E912CB12CA12C54
:1010F000A50194010E94E512E62FB901CA01EA3068
:1011000004F5E05DD801EE938D01232B242B252BD4
:1011100079F790E080E0109729F0BD018AE094E033
:101120000E944E08A1960FB6F894DEBF0FBECDBF49
:10113000DF91CF911F910F91BF90AF909F908F90B3
:101140000895E95CDFCFBC018AE094E00C944E087E
:10115000CF93DF93BC0190E080E04AE00E945D08FD
:10116000EC0163E571E08AE094E00E944E088C0F88
:101170009D1FDF91CF9108950F931F93CF93DF931E
:10118000EC010E944E088C0163E571E0CE010E94E3
:101190004E08800F911FDF91CF911F910F910895FD
:1011A0001F93CF93DF93EC01162F0E949D12181707
:1011B00039F0612FCE01DF91CF911F910C94A512D0
:1011C000DF91CF911F9108950C949D12CF9382E0EF
:1011D00090E00E94E408C82F83E090E00E94E408B9
:1011E000982F8C2FCF9108951F920F920FB60F92C8
:1011F00011242F933F938F939F93AF93BF9380912D
:101200007B0390917C03A0917D03B0917E0330918C
:101210007A0323E0230F2D3758F50196A11DB11D48
:1012200020937A0380937B0390937C03A0937D03A8
:10123000B0937E0380917F0390918003A0918103FE
:10124000B09182030196A11DB11D80937F039093FD
:101250008003A0938103B0938203BF91AF919F91CC
:101260008F913F912F910F900FBE0F901F90189567
:1012700026E8230F0296A11DB11DD2CF1F920F9217
:101280000FB60F9211242F933F934F935F936F9359
:101290007F938F939F93AF93BF93CF93EF93FF93DE
:1012A000C091E1008091E100837F8093E100C3FF62
:1012B0000FC01092E90081E08093EB001092EC00E7
:1012C00082E38093ED001092840388E08093F00025
:1012D000C2FF1AC00E94670180912203882341F057
:1012E00080912203815080932203811101C05D9A75
:1012F00080918303882341F0809183038150809300
:101300008303811101C0289AC4FF23C08091E200A9
:101310008E7E81608093E2008091E1008F7E8093D9
:10132000E100809123038E7E806180932303FF91EF
:10133000EF91CF91BF91AF919F918F917F916F91DD
:101340005F914F913F912F910F900FBE0F901F9083
:101350001895C0FFECCF8091E2008E7E8061809373
:10136000E2008091E1008E7E8093E1008091230372
:101370008E7E8160DACF1F920F920FB60F921124EA
:10138000CF92DF92EF92FF920F931F932F933F9391
:101390004F935F936F937F938F939F93AF93BF937D
:1013A000EF93FF93CF93DF93CDB7DEB76C97DEBF9C
:1013B000CDBF1092E9008091E80083FF25C068E06E
:1013C000CE0145960E94470482EF8093E8008D8904
:1013D00087FF39C09091E80090FFFCCF982F90765E
:1013E00009F034C19E894F89588D2F89F88C91114D
:1013F00031C0803861F5809124038093F100109210
:10140000F1008EEF8093E8006C960FB6F894DEBF83
:101410000FBECDBFDF91CF91FF91EF91BF91AF9103
:101420009F918F917F916F915F914F913F912F91FC
:101430001F910F91FF90EF90DF90CF900F900FBE14
:101440000F901F9018959EEF9093E800C7CF1092D1
:10145000F100D5CF913059F48111D3CF41305105EE
:1014600081F6809124038D7F80932403CACF93302B
:1014700049F48111C6CF4130510519F680912403FA
:101480008260F2CF953041F48091E80080FFFCCF7C
:1014900020682093E300B5CF963009F0A9C00B8DEA
:1014A0001C8D22E01092E9001092200310921F037D
:1014B000F2122EC010921E0310921D030E94E80427
:1014C0001F8299E09983FA8291E09E8390EA98873F
:1014D0009AEF998720911F0330912003275F3F4F98
:1014E0003C832B838D831092E9001092200310928D
:1014F0001F0310931E0300931D0349E050E0BE013B
:101500006F5F7F4F80E00E9476030E94E80479CFEE
:1015100010931E0300931D030E948104DC011296A8
:101520000D911C910115110509F451C1D801ED91DE
:10153000FC910480F581E02DBE016B5E7F4FC801F8
:101540000995009709F03EC1F80100851185EACFA1
:10155000F3E0FF120EC08F89882309F440C0823067
:1015600061F440E868E18BE191E00E94430381115E
:1015700048CF81E28093EB0047CF813029F440E8E7
:1015800066E184E091E0F1CF833099F70E94810415
:10159000DC011296ED90FC908E010F5F1F4F6801E9
:1015A000E114F10479F0D701ED91FC910680F78107
:1015B000E02DB801C7010995080F111DF701E0845E
:1015C000F184EECFD8011C92F60101900020E9F7DA
:1015D0003197BF016C197D0940E0C601C6CF6EEEA0
:1015E00070E0FB01449150E080E80E94760309CF4F
:1015F000973009F4BECF983021F481E08093F10058
:1016000000CF993009F0FDCE837009F0B2CFEDE044
:10161000F1E081E031E096E32191222371F08093A3
:10162000E9003093EB00DF0111972C912093EC003F
:101630009093ED008F5F873079F78EE78093EA0013
:101640001092EA008F8980938403DBCE8B8D9C8D72
:101650001092E9001092200310921F0390931E0332
:1016600080931D03898D811192C08E899D89913A45
:1016700049F4813209F07DCF47E050E064E071E049
:1016800080E0B3CF913209F074CF833269F48F894F
:10169000988DB0E0A0E08093000190930101A093A9
:1016A0000201B0930301ADCE803269F48091E8006D
:1016B00082FFFCCF67E084E091E00E9447048BEF5B
:1016C0008093E8009ECE823209F09BCE8F89809372
:1016D0000B01EEEFFFE7859194918B3F9C4D51F10B
:1016E000E0E0F8E08091040190910501A0910601ED
:1016F000B0910701803B9440A105B105F1F48091C0
:101700000B0180FD1AC0EE3F8AE0F80789F587E7F4
:1017100097E791838083809160008093210388E123
:101720009BE00FB6F894A895809360000FBE90934D
:10173000600067CEEEEFFAE0D5CF808191818737E8
:10174000974709F05ECEA8958091600088618093EC
:1017500060008091210380936000EE3F2AE0F20751
:1017600089F08091FE0A9091FF0A9183808349CE8F
:10177000808191818737980751F29093FF0A809377
:10178000FE0AC5CF1092FF0A1092FE0A3ACE0E94BE
:101790008104DC0112960D911C910115110509F4CB
:1017A000E8CED801ED91FC910190F081E02DBE01D1
:1017B0006B5E7F4FC8010995811123CEF80100852A
:1017C0001185EBCF181619060CF41BCED2CEF1E022
:1017D000FF12BECE62EF70E004CF1F920F920FB6E1
:1017E0000F9211242F933F934F935F936F937F93A7
:1017F0008F939F93AF93BF93EF93FF93E091270352
:10180000F0912803309749F0A685B7858585968D98
:1018100091FF14C09C918923A1F4FF91EF91BF9196
:10182000AF919F918F917F916F915F914F913F9178
:101830002F910F900FBE0F901F9018959C918923A8
:1018400061F7A389B4899C918589809589238C93BC
:10185000868997890197F1F7608D718DA685B78587
:10186000558538E020E0CB010197F1F7822F90E019
:1018700095958795282F4C91452309F02068315084
:1018800091F7868D81FD20958091260390E0019649
:101890008F73992730912503381799F0A09126036B
:1018A000B0E0AF52BD4F2C9380932603828D938D71
:1018B0000197F1F7A389B4898C919589892B8C9331
:1018C000ACCF868D8160868FF1CF8230910538F064
:1018D000880F991F880F991F05970197F1F70895B1
:1018E0009091E1008091D00294FF0CC0811103C05F
:1018F00081E08093D0028091E1008F7E8093E100AF
:1019000080E0089581111092D0020895CF93DF9363
:101910006FEF90E080E00E94D008C2E0D0E06FEF6F
:10192000CE010E94D0082196CF3F83E0D807B9F7B7
:101930006FEF81E090E0DF91CF910C94D0080F938E
:101940001F93CF93DF9309E313E0C4E0D0E0CE010F
:101950000E94E408F80181938F012196C534D105D6
:10196000B1F709E213E0CE010E94E408F801819387
:101970008F012196C535D105B1F7DF91CF911F9128
:101980000F910895CF92DF92EF92FF92CF93DF9362
:101990000E944512C12CD12C7601CA94A701960150
:1019A0000E94B312CB010E94650C0E940008EC015A
:1019B0000E94E608C817D90721F10E944512A70125
:1019C00096010E94B312CB010E94650C0E94451241
:1019D000A70196010E94B312CB010E94650C62E040
:1019E00081E090E00E94D0080E944512A701960174
:1019F0000E94B312CB010E94650C0E94860C0C94CD
:101A00000000DF91CF91FF90EF90DF90CF9008958D
:101A1000FF920F931F93CF93DF93EC010990002067
:101A2000E9F72197C81BF82E8C01802F8F198C178E
:101A300098F4F801D1918F01DD23B9F30E94C20C13
:101A40006D2F8CEF93E00E9441076AE070E080E028
:101A500090E00E94DF02E9CF64EF71E080E090E067
:101A60000E94DF0260EB8CEF93E00E94410764EF7D
:101A700071E080E090E0DF91CF911F910F91FF9096
:101A80000C94DF02CF93109288031092870388EEA4
:101A900093E0A0E0B0E08093890390938A03A09341
:101AA0008B03B0938C038BE191E09093860380933A
:101AB00085038FEF9FEF9093920380939103109291
:101AC000FF031092FE0389E391E09093FD0380935E
:101AD000FC038091F403811113C01092EF03109264
:101AE000EE038DEE91E09093F1038093F0038FE28B
:101AF00090E09093F3038093F20381E08093F403EA
:101B00008091E60381112AC0C1E0C093D903C0933C
:101B1000DA038FED93E09093DC038093DB03109264
:101B2000DE031092DD038DE291E09093D603809363
:101B3000D5031092E1031092E0031092E303109298
:101B4000E203C093E403C093E50381EC8093DF03D9
:101B50000E9481040E949C01C093E603E091E0038F
:101B6000F091E103309709F08CC08EEE93E09093F2
:101B7000E1038093E0038091E2039091E3032091DD
:101B8000F2033091F303820F931F9093E30380934A
:101B9000E2038DE691E090930904809308048EB3EC
:101BA0008093290410920D0410920C0488EE93E0A7
:101BB000A0E0B0E080930E0490930F04A093100473
:101BC000B093110485E491E090930B0480930A0490
:101BD00010922104109220041092230410922204E7
:101BE00010922504109224041092270410922604C7
:101BF000609128046E7F6D7F609328046695617004
:101C000081E0682780E10E942E0261E080E10E946D
:101C10005C02E7E6F2E0E491E0931A04E8E4F2E023
:101C2000E491F0E0EE0FFF1FE65DFD4F859194918A
:101C300090931C0480931B0460E08EE00E945C0281
:101C40008091280481FD04C061E08EE00E942E0294
:101C50008EE080931604E5E6F2E0E491E093170449
:101C6000E6E4F2E0E491F0E0EE0FFF1FE45EFD4FEA
:101C7000859194919093190480931804CF910895BD
:101C8000FC01808191810097D9F78EEE93E09183DA
:101C9000808371CF789484B5826084BD84B581607F
:101CA00084BD85B5826085BD85B5816085BD809127
:101CB0006E00816080936E0010928100809181009F
:101CC0008260809381008091810081608093810097
:101CD000809180008160809380008091910082607B
:101CE0008093910080919100816080939100809118
:101CF00090008160809390008091C1008460809307
:101D0000C1008091C10082608093C1008091C100B8
:101D100081608093C1008091C30081608093C30083
:101D20008091C00082608093C0008091C200816079
:101D30008093C20080917A00846080937A008091C1
:101D40007A00826080937A0080917A00816080932B
:101D50007A0080917A00806880937A0010928403E0
:101D600010922403109223038091D7008160809306
:101D7000D70080EA8093D80089B5806189BD89B594
:101D8000826089BD09B400FEFDCF61E070E080E0B3
:101D900090E00E94DF028091D8008F7C8061809368
:101DA000D8008091E000807F8093E0008091E10086
:101DB0008E7E8093E1008DE08093E200559A209A18
:101DC00086E10E949802EC0187E10E949802AC0132
:101DD00080EC80937C0090917C00996090937C00D3
:101DE00086E880937A0090917A00906490937A00CC
:101DF00080917A0086FDFCCF2091780030917900A7
:101E00004C275D27B9016427752790E080E02417EF
:101E1000350711F00E94941261E082E10E945C0299
:101E200061E083E10E945C0261E084E10E945C0267
:101E3000C2E062E08C2F0E945C02CF5FCC30C9F719
:101E40006AEF70E080E090E00E94DF0290E080E0C6
:101E50000E94E4088F3F09F45AC00E94E608EC0192
:101E60000E940008C817D90709F051C00E94451206
:101E700028EE33E040E050E00E94B3120E94DF02FF
:101E800060E084E10E942E0261E083E10E942E0264
:101E900060E081E090E00E94D00890E080E00E9445
:101EA000E408813009F0D2C00E94C20C68E97AE3EC
:101EB00080E090E00E94DF020E94C20C8DE691E07B
:101EC00090930904809308040E94C20C1092E100D0
:101ED00080E18093E2000E94C20C0E949F0C0E944D
:101EE000C20C89E393E00E94080D0E94C20C89E2B3
:101EF00093E00E94080D0E94700CD82F811151C0F0
:101F000064E670E080E090E00E94DF02F4CF81E0C0
:101F100090E00E94E408811117C061E081E090E048
:101F20000E94D00861E082E10E942E0260E083E11D
:101F30000E942E0260E084E10E942E0268E873E1B4
:101F400080E090E00E94DF020E94860C8FEF9FEFFE
:101F5000909392038093910310E0D0E0C0E095E06D
:101F6000E92EF12C00910B016AE070E080E090E036
:101F70000E94DF020111ACC02196CE01B7010E9480
:101F80001613892B39F411119DC061E082E10E9482
:101F90002E0211E062E370E080E090E00E94DF0238
:101FA000E1CF0E94700CC82F882339F064E670E0FE
:101FB00080E090E00E94DF02F4CF10E000E025E036
:101FC000E22EF12C0E94700C81111CC00F5F1F4F7C
:101FD000C801B7010E941613892B39F4C1110CC036
:101FE00061E083E10E942E02CD2F62E370E080E089
:101FF00090E00E94DF02E6CF60E083E10E942E02C3
:10200000C0E0F3CF0E94700C882339F064E670E0E2
:1020100080E090E00E94DF02F5CF60E083E10E9463
:102020002E0261E084E10E942E020E94700C88233F
:1020300031F00E94700C8111FCCF0C94000064E61A
:1020400070E080E090E00E94DF02EFCFC0E0D0E0DF
:10205000823009F0ADC10E94C20C61E083E10E94B0
:102060002E0268EE73E080E090E00E94DF028DE6D1
:1020700091E090930904809308040E94C20C6AEFD7
:1020800070E080E090E00E94DF020E949F0C0E94BE
:10209000C20C6AEF70E080E090E00E94DF0289E30A
:1020A00093E00E94080D0E94C20C89E293E00E9416
:1020B000080D60E083E10E942E0261E084E10E944D
:1020C0002E02FFCF60E082E10E942E0210E062CF7C
:1020D00061E082E10E942E0280910B016AE070E0D3
:1020E00080E090E00E94DF021092E10080E18093A6
:1020F000E20066E571E085E893E00E94BC086EE6C8
:1021000071E085E893E00E94BC0860EB71E085E82F
:1021100093E00E94BC080E94670185E0E82EF12C44
:1021200085E893E00E948C05892BD9F42196CE0195
:10213000B7010E941613892B39F411110CC061E00C
:1021400082E10E942E0211E062E370E080E090E004
:102150000E94DF02E5CF60E082E10E942E0210E0E3
:10216000F3CF61E082E10E942E0285E893E00E94B5
:102170008C05892BD1F369E170E080E090E00E944A
:10218000DF0285E893E00E944A05C82F85E893E0C6
:102190000E948C05892B29F085E893E00E944A056E
:1021A000F5CFCF7DC13459F0CD34A1F165EF71E0A9
:1021B00085E893E00E94BC080E946701D6CF01E049
:1021C0008FEF93E00E94E4088B3B79F16CE072E0C2
:1021D00085E893E00E94BC080E94670185E893E0CF
:1021E0000E948C05892BD1F369E170E080E090E0DA
:1021F0000E94DF0285E893E00E944A05C82F85E827
:1022000093E00E948C05892B39F085E893E00E94C9
:102210004A05F5CF02E0D4CFCF7DC93509F46AC0B5
:10222000CE3419F065E472E0D3CF10E067E572E0D8
:1022300085E893E00E94BC080E94670185E893E06E
:102240000E948C05892BD1F369E170E080E090E079
:102250000E94DF02C4E0D0E085E893E00E944A05D6
:102260008D3019F0682F8A3009F460E0CE010E94A9
:10227000D0082196C434D10579F760E084E490E079
:102280000E94D00885E893E00E948C05892BA1F577
:1022900069E872E085E893E00E94BC080E9467014B
:1022A00085E893E00E948C05892BD1F369E170E009
:1022B00080E090E00E94DF02C5E4D0E085E893E092
:1022C0000E944A058D3019F0682F8A3009F460E0C9
:1022D000CE010E94D0082196C535D10579F785E851
:1022E00093E00E948C05892B61F085E893E00E94C1
:1022F0004A05F5CF11E09ACF85E893E00E944A05A0
:10230000C1CF602F90E080E00E94D00860E081E0C3
:1023100090E00E94D0080E940008D82F0E94000878
:10232000C92F6D2F82E090E00E94D0086C2F83E0CF
:1023300090E00E94D008112329F06BEB8FEF93E01F
:102340000E94D0080E949F0C68EB72E085E893E041
:102350000E94BC080E94670160E082E10E942E0298
:102360000E94700C882339F00E94700C8111FCCF00
:102370000C940000F5CF60E083E10E942E0261E042
:1023800084E10E942E0264EF71E080E090E00E9400
:10239000DF0261E083E10E942E0260E084E10E949E
:1023A0002E0264EF71E080E090E00E94DF02D8CF5F
:1023B0002097F1F30E940000FBCF85E491E0909319
:1023C0000B0480930A0480912703909128038A507C
:1023D000944071F4E0911D04F0911E04908180916D
:1023E0001F0480958923808310922803109227036D
:1023F00008958F929F92AF92BF92CF92DF92EF9209
:10240000FF92CF93DF93EC01688179818A819B8170
:10241000611571058105910521F464E279ED8BE583
:1024200097E02DE133EF41E050E00E94B312490103
:102430005A019B01AC01A7EAB1E40E94D2126B01E0
:102440007C01ACEEB4EFA50194010E94E012C60E2F
:10245000D71EE81EF91EF7FE06C081E0C81AD10893
:10246000E10880E8F80AC882D982EA82FB82C701C3
:10247000B6019F77DF91CF91FF90EF90DF90CF90E3
:10248000BF90AF909F908F9008958F929F92AF9240
:10249000BF92CF92DF92EF92FF9260911301709101
:1024A0001401809115019091160161157105810546
:1024B000910521F464E279ED8BE597E02DE133EFAE
:1024C00041E050E00E94B31249015A019B01AC0166
:1024D000A7EAB1E40E94D2126B017C01ACEEB4EF2A
:1024E000A50194010E94E012C60ED71EE81EF91E37
:1024F000F7FE06C081E0C81AD108E10880E8F80AB2
:10250000C0921301D0921401E0921501F0921601CD
:10251000C701B6019F77FF90EF90DF90CF90BF90FB
:10252000AF909F908F900895609313017093140162
:1025300080931501909316010895F999FECF92BDED
:1025400081BDF89A992780B50895262FF999FECF75
:102550001FBA92BD81BD20BD0FB6F894FA9AF99AC0
:102560000FBE01960895052E97FB1EF400940E945D
:10257000CA1257FD07D00E94E51207FC03D04EF4A3
:102580000C94CA1250954095309521953F4F4F4F6E
:102590005F4F089590958095709561957F4F8F4F0F
:1025A0009F4F08950E940713A59F900DB49F900D13
:1025B000A49F800D911D11240895B7FF0C94D21291
:1025C0000E94D212821B930B0895A1E21A2EAA1B1D
:1025D000BB1BFD010DC0AA1FBB1FEE1FFF1FA217D3
:1025E000B307E407F50720F0A21BB30BE40BF50BD0
:1025F000661F771F881F991F1A9469F76095709559
:10260000809590959B01AC01BD01CF010895A29FDB
:10261000B001B39FC001A39F700D811D1124911DB6
:10262000B29F700D811D1124911D0895AA1BBB1B23
:1026300051E107C0AA1FBB1FA617B70710F0A61BC2
:10264000B70B881F991F5A95A9F780959095BC01E3
:10265000CD010895EE0FFF1F0590F491E02D099430
:1026600011E0CCE3D1E004C0FE010E942A132196C0
:10267000CD33D107C9F7F894FFCFFFFFFFFF00E18B
:1026800000000000000000C1808100000001000087
:1026900000000000002F051905450513038C054AAD
:1026A000056805000000005106CA068F0674060082
:1026B00000000041071507FD07FC0700000000BEF1
:1026C000055404FD0712031A063006A6050D0A007C
:1026D00053656C6563742044656372797074696FC7
:1026E0006E204D6F64653A002D2D3E20466F72209E
:1026F0004175746F6D6174696320566572614372D0
:102700007970742D57696E646F7773205379737481
:10271000656D2044656372797074696F6E202D2039
:10272000456E74657220274127002D2D3E20466F8F
:1027300072204D616E75616C2044656372797074AE
:10274000696F6E2028456E746572732043726564EC
:10275000656E7469616C73206F6E20506C7567696B
:102760006E29202D20456E74657220274D27004963
:102770006E76616C6964204D6F64652053656C658D
:102780006374696F6E005065726D616E656E746C16
:10279000792044697361626C65204669726D776166
:1027A000726520557064617465733F2028456E74AE
:1027B000657220275927206F7220274E272900494C
:1027C0006E76616C69642053656C656374696F6EC5
:1027D00000456E7465722044656372797074696F28
:1027E0006E2050617373776F7264202836342063D3
:1027F000686172616374657273206F72206C6573B7
:10280000732900456E746572205665726143727952
:1028100070742053797374656D2050494D2028459C
:102820006E74657220272A27206966206E6F6E6598
:102830002900436F6E66696775726174696F6E20F7
:0A284000636F6D706C657465000035
:1070000055C000006EC000006CC000006AC00000E7
:1070100068C0000066C0000064C0000062C00000DC
:1070200060C000005EC00000BDC400005AC0000087
:1070300058C0000056C0000054C0000052C00000FC
:1070400050C00000DCC000004CC000004AC000007E
:1070500048C0000046C0000044C0000042C000001C
:1070600040C000003EC000003CC000003AC000002C
:1070700038C0000036C0000034C0000032C000003C
:1070800030C000002EC000002CC000002AC000004C
:1070900028C0000026C0000024C0000022C000005C
:1070A00020C000001EC000001CC0000011241FBE34
:1070B000CFEFDAE0DEBFCDBF11E0A0E0B1E0E0E06D
:1070C000FFE702C005900D92A83BB107D9F721E078
:1070D000A8EBB1E001C01D92AE3CB207E1F72DD3A1
:1070E000CFC68ECF84E08093E9008091E80085FFD1
:1070F00003C08091F1000CC08091E8008B778093F1
:10710000E8008091E80082FDF0CF8EB38111F9CFC5
:10711000089593E09093E9009091E80095FF0AC0EC
:107120008093F1008F9A84E690E09093BF01809362
:10713000BE0108959091E8009E779093E8009091A9
:10714000E80090FDEDCF9EB39111F9CF0895F8942A
:1071500010926F00109281001092850010928400AE
:1071600081E085BF15BE47988F988E980C940000DB
:1071700008952091B8013091B9012F5F3F4F3093AE
:10718000B9012093B801832F37FF02C08EEF831B14
:10719000880F821710F447980895479A089584B786
:1071A000877F84BF0FB6F894A895809160008861AE
:1071B00080936000109260000FBE90E880E00FB6F0
:1071C000F89490936100809361000FBE81E085BFC9
:1071D00082E085BF3F9A869A879AE1E6F0E0908345
:1071E000108247988F988E98109289009AEF90930A
:1071F000880080936F0083E08093810008951F9240
:107200001FB61F9211242F938F939F93EF93FF9399
:1072100010928500109284008091BE019091BF0170
:10722000009741F001979093BF018093BE01892B95
:1072300009F48F988091BC019091BD01009741F0B5
:1072400001979093BD018093BC01892B09F48E981E
:10725000E0E0F0E085919491019649F08091BA01C7
:107260009091BB0101969093BB018093BA01FF916D
:10727000EF919F918F912F911F901FBE1F90189596
:1072800042E061EC82E00BD342E161E883E007D3A6
:1072900042E160E884E003C38091C501982F9F77A5
:1072A0009132B9F49091C6019032A1F0913289F4F3
:1072B000813A79F48091E800877F8093E80067E065
:1072C00070E083E091E020D48091E8008B77809398
:1072D000E80008958132E9F78091E800877F809384
:1072E000E80067E070E083E091E062D48091E8001C
:1072F0008E77EDCF7F928F929F92AF92BF92CF9277
:10730000DF92EF92FF920F931F93CF93DF9384E06E
:107310008093E9008091E80082FF01C28E9A84E6A2
:1073200090E09093BD018093BC01DCDE082F853492
:1073300091F48CE89CE39093BB018093BA0107B66B
:1073400000FCFDCFF999FECF81E180935700E895CD
:107350008DE0DFDE38C08B31B1F1EFEBE80FE433C5
:1073600008F092C0F0E0EE5BF04C5CC5BBDEF0CF05
:1073700084E4CFDE80E0EDCF89E5EBCFB3DEC82F2C
:10738000B1DE2C2F30E0322F2227330F90E0880F10
:10739000991F822B932B092E000CAA0BBB0B8093F9
:1073A000C0019093C101A093C201B093C301D0CF9B
:1073B00083E5CFCFC0EBD1E007EB11E08991A9DEE7
:1073C0000C171D07D9F783E08093E9009091E8003E
:1073D0008091E8008E778093E80095FF93C18091BB
:1073E000E80080FF99C184E08093E9008091E80083
:1073F0008B778093E80093C181E38BDE80E3A9CF94
:1074000087E887DE85E985DE8EE1A3CFE0E0F0E066
:1074100083E095E080935700E89507B600FCFDCF28
:1074200090935700E89507B600FCFDCFE058FF4F5A
:10743000E11520E7F20771F78BCF89E0E1E0F0E09A
:1074400080935700849185CF89E0E0E0F0E0F8CFA9
:1074500089E0E3E0F0E0F4CF89E0E2E0F0E0F0CFB3
:1074600089E557DE80E055DE80E873CF1092BB01DE
:107470001092BA0137DED82F35DEC82F33DE182F31
:107480008BEB810F823010F08FE363CF10926F008F
:10749000073609F045C081E180935700E89500E088
:1074A000BB24B394209721F482E080936F008BCFAC
:1074B000C090C001D090C101E090C201F090C30122
:1074C0001634C1F4E02FF0E0EC29FD29849121DE8F
:1074D000011569F082E0C80ED11CE11CF11CC092BC
:1074E000C001D092C101E092C201F092C3010B250C
:1074F0002197D8CFD701C601B695A79597958795BF
:1075000097D407DEE2E0CE0ED11CE11CF11CC09244
:10751000C001D092C101E092C201F092C301E8CF54
:10752000C090C001D090C101E090C201F090C301B1
:10753000163441F483E0F60180935700E89507B6CE
:1075400000FCFDCF209729F4163461F18DE0E1DDD8
:10755000ABCF163499F510E000E077247394011551
:1075600051F18090C0019090C101A090C201B090F3
:10757000C301B8DD982F812FF4010C0170925700E0
:10758000E8951124F2E08F0E911CA11CB11C809291
:10759000C0019092C101A092C201B092C30107251F
:1075A0002197E9F685E0F60180935700E89507B644
:1075B00000FCFDCFCBCF96DD182FF1CF93DD682FE8
:1075C0008091C0019091C101A091C201B091C3010D
:1075D000B695A7959795879545D48091C0019091D0
:1075E000C101A091C201B091C3010296A11DB11DBC
:1075F0008093C0019093C101A093C201B093C301D5
:107600002197A0CFC091C001D091C1016BDD90E066
:1076100021E0FE010C0120935700E895112498CE3B
:10762000C090C001D090C101E090C201F090C301B0
:1076300059DDF601E16090E021E00C012093570054
:10764000E8951124F2E0CF0ED11CE11CF11CC09290
:10765000C001D092C101E092C201F092C30178CE84
:10766000E091C001F091C10185E080935700E89559
:1076700007B600FCFDCF6CCEE091C001F091C101D6
:10768000C591D4918D2F45DD8C2F63CE2BDD682FD6
:107690008091C0019091C101A091C201B091C3013C
:1076A000B695A79597958795DDD38091C001909168
:1076B000C101A091C201B091C3010296A11DB11DEB
:1076C0006ECEC090C001D090C101E090C201F09098
:1076D000C301D701C601B695A79597958795A8D3FD
:1076E00018DD22E0C20ED11CE11CF11CC092C001C9
:1076F000D092C101E092C201F092C30164CE8EB378
:10770000811569F08091E80080FFF9CF8091E80051
:107710008E778093E80063CE8EB3811160CEDF91C7
:10772000CF911F910F91FF90EF90DF90CF90BF907E
:10773000AF909F908F907F900895E0900008F09018
:107740000108109201081092000814B71EBB14BE65
:107750000FB6F894A89580916000886180936000CE
:10776000109260000FBE81E090E062D382508D3FA6
:1077700090F46FEF80E090E063D3C2E0D0E06FEF71
:10778000CE015ED32196CF3F23E0D207C1F76FEF42
:1077900081E090E055D310FF21C0E0E0F0E085915A
:1077A00094910196D9F0D3DCFADC8FEF93E040D3CB
:1077B0008B3B09F4CCDCDED078941092BB011092A4
:1077C000BA018091020181112BC08091E00081609B
:1077D0008093E000BCDC80E090E0089513FF0DC0D2
:1077E00080910001909101018E159F0531F0E0E03C
:1077F000F0E0859194910196B1F66FEF80E090E012
:107800001FD3C2E0D0E06FEFCE011AD32196CF3F55
:1078100083E0D807C1F76FEF81E090E011D3C4CFC8
:1078200069DDEFD28091BA019091BB0181389E430E
:1078300010F0109202019DDCC4CFFA01292F30E034
:1078400022303105C1F02330310541F021303105BE
:10785000B9F080E090E020E030E00AC08115A9F0A6
:107860008130C1F08230A9F78EE290E02AE031E069
:107870003183208308958EE390E020E631E0F8CF55
:1078800082E190E02EE931E0F3CF84E090E02CE556
:1078900031E0EECF82E290E02AE331E0E9CF80935D
:1078A000E900EBEEF0E0808181608083EDEEF0E0B6
:1078B00010826093EC0040838091EE00881F88273F
:1078C000881F08958091C50187FF11C08091E8004D
:1078D00082FF06C08091E8008B778093E80003C0A8
:1078E0008EB38111F3CF08958EB38115E1F38091AA
:1078F000E80080FFF9CF8091E8008E77EECF0F93FC
:107900001F93CF93DF9341D048D0C8EDD0E088815A
:107910008F77888388818068888388818F7D88833A
:1079200019BC1EBA1092C40100EE10E0F80180816B
:107930008B7F808388818160888342E060E080E083
:10794000AEDFE1EEF0E080818E7F8083E2EEF0E05A
:10795000808181608083808188608083F80180815C
:107960008E7F8083888180618883DF91CF911F9192
:107970000F910895E7EDF0E08081816080838AE4D3
:1079800082BF81E08093CD01BACFE8EDF0E0808145
:107990008E7F80831092E20008951092DA00109298
:1079A000E10008951F920F920FB60F9211242F93AA
:1079B0003F934F935F936F937F938F939F93AF9377
:1079C000BF93EF93FF938091DA0080FF17C08091FF
:1079D000D80080FF13C08091DA008E7F8093DA0098
:1079E0008091D90080FF86C080E189BD82E189BD98
:1079F00009B400FEFDCF81E08EBB02D28091E10090
:107A000080FF17C08091E20080FF13C08091E200E8
:107A10008E7F8093E2008091E20080618093E2009B
:107A20008091D80080628093D80019BC85E08EBB1D
:107A3000E7D18091E10084FF27C08091E20084FFBC
:107A400023C080E189BD82E189BD09B400FEFDCF7C
:107A50008091D8008F7D8093D8008091E1008F7E47
:107A60008093E1008091E2008F7E8093E20080911C
:107A7000E20081608093E2008091C401811509F4E5
:107A80003DC084E08EBBBCD18091E10083FF21C06A
:107A90008091E20083FF1DC08091E100877F809389
:107AA000E10082E08EBB1092C4018091E1008E7FE4
:107AB0008093E1008091E2008E7F8093E2008091CC
:107AC000E20080618093E20042E060E080E0E7DE77
:107AD00097D1FF91EF91BF91AF919F918F917F913E
:107AE0006F915F914F913F912F910F900FBE0F902B
:107AF0001F90189519BC1EBA83D180CF8091E300E6
:107B000087FDBFCF81E0BECFFC019B018091CB01FF
:107B10009091CC018617970718F0672B61F0C90187
:107B200040E0009771F441110CC08091E80082FFA1
:107B300034C080E008958091E8008E778093E8005B
:107B4000EECF2EB3211591F1253061F12091E8009F
:107B500023FD2AC02091E80022FDE7CF2091E80014
:107B600020FFDFCF3091F3002091F200009719F051
:107B70002830310558F041E02830310509F040E067
:107B80002091E8002E772093E800CBCF41914093DD
:107B9000F10001972F5F3F4FE9CF8EB3811531F090
:107BA000853019F683E0089581E0089582E0089514
:107BB000FC01CB01009769F42091E8002B7720931A
:107BC000E800009731F48091E80080FF1BC080E05E
:107BD00008952EB32115F9F02530C9F02091E80061
:107BE00023FD17C02091E80022FFF3CF3091F3006E
:107BF0002091F200232B01F32091F10021930197B2
:107C0000D9F2F4CF8EB3811531F08530E1F683E0FF
:107C1000089581E0089582E008950F931F93CF9314
:107C2000DF9300D0CDB7DEB785EC91E0FC01019683
:107C30002091F100208321E08D3C9207B9F72CDBE5
:107C40008091E80083FF80C08091C5019091C601BA
:107C50009A3008F079C0E92FF0E0EA58F04CE2C021
:107C6000823809F071C08091C90187708093E90062
:107C70008091EB0085FB882780F91092E9009091B4
:107C8000E800977F9093E8008093F1001092F10054
:107C90008091E8008E771FC0823009F055C0809136
:107CA000C701811113C08091C9018770811509F442
:107CB0004BC08093E9002091EB0020FF07C0933078
:107CC00071F48091EB0080628093EB001092E900E8
:107CD0008091E800877F8093E800F4DD35C09091C3
:107CE000EB0090619093EB0021E030E0A90102C02D
:107CF000440F551F8A95E2F74093EA001092EA007C
:107D00008091EB008860E0CF81111EC01091C70107
:107D10001F770FB7F8948091E800877F8093E80081
:107D2000D1DD8091E80080FFFCCF8091E300807876
:107D3000812B8093E30080688093E30083E011113E
:107D400001C082E08EBB0FBF8091E80083FF0AC0B4
:107D50008091EB0080628093EB008091E800877F48
:107D60008093E8000F900F90DF91CF911F910F91BA
:107D700008958058823040F7AE014F5F5F4F6091A9
:107D8000C9018091C7019091C80157DDBC01892BC1
:107D9000D9F28091E800877F8093E80089819A81F9
:107DA000B3DE8091E8008B778093E800CDCF8038F8
:107DB00059F68091E800877F8093E8008091C401A4
:107DC0008093F10065CF8111BFCF9091C7019230B0
:107DD00008F0BACF8091E800877F8093E800909305
:107DE000C40170DD8091C401811521F084E08EBB57
:107DF00047DAAACF8091E30087FDF8CF81E0F7CF83
:107E00000895CF938EB3811559F0C091E900C770E2
:107E10001092E9008091E80083FDFFDEC093E90045
:107E2000CF910895EE0FFF1F0590F491E02D099476
:107E3000F999FECF92BD81BDF89A992780B5089532
:107E4000262FF999FECF92BD81BDF89A019700B413
:107E5000021639F01FBA20BD0FB6F894FA9AF99AB3
:107E60000FBE0895262FF999FECF1FBA92BD81BD8E
:107E700020BD0FB6F894FA9AF99A0FBE01960895AC
:107E8000F894FFCFBE39363A023B463B443A243A97
:107E9000443A443A443A443A443AA839443A283AAB
:107EA000443AA8392C3A3C3BDA39B639443AFC39E1
:107EB000443A443A443A443A443A443A443A443AD2
:107EC000443A443ABC39303A103B613B063A443AB2
:107ED000363A443A443A443A443A443A303B443AD3
:107EE000443AD839443A1D3A003AB839303E4C3E0B
:107EF000A43E4C3EA43E843EB93EA43ED73EE33E63
:107F0000777701000000000000082E03770077005B
:107F100077002E00640065006600690061006E0055
:107F20006300650064006900670069007400610017
:107F30006C002E00750073000000220375004200E3
:107F400041004400200042006F006F0074006C008C
:107F50006F00610064006500720000000403090402
:107F600009023E0002010080320904000001020201
:107F70000100052400100104240204052406000168
:107F8000070582030800FF09040100020A0000003F
:107F90000705040210000107058302100001120109
:107FA000100102000008C016E105010002010001F5
:087FB0007542414431763100B5
:00000001FF
