:1070000055C000006EC000006CC000006AC00000E7
:1070100068C0000066C0000064C0000062C00000DC
:1070200060C000005EC00000BDC400005AC0000087
:1070300058C0000056C0000054C0000052C00000FC
:1070400050C00000DCC000004CC000004AC000007E
:1070500048C0000046C0000044C0000042C000001C
:1070600040C000003EC000003CC000003AC000002C
:1070700038C0000036C0000034C0000032C000003C
:1070800030C000002EC000002CC000002AC000004C
:1070900028C0000026C0000024C0000022C000005C
:1070A00020C000001EC000001CC0000011241FBE34
:1070B000CFEFDAE0DEBFCDBF11E0A0E0B1E0E0E06D
:1070C000FFE702C005900D92A83BB107D9F721E078
:1070D000A8EBB1E001C01D92AE3CB207E1F72DD3A1
:1070E000CFC68ECF84E08093E9008091E80085FFD1
:1070F00003C08091F1000CC08091E8008B778093F1
:10710000E8008091E80082FDF0CF8EB38111F9CFC5
:10711000089593E09093E9009091E80095FF0AC0EC
:107120008093F1008F9A84E690E09093BF01809362
:10713000BE0108959091E8009E779093E8009091A9
:10714000E80090FDEDCF9EB39111F9CF0895F8942A
:1071500010926F00109281001092850010928400AE
:1071600081E085BF15BE47988F988E980C940000DB
:1071700008952091B8013091B9012F5F3F4F3093AE
:10718000B9012093B801832F37FF02C08EEF831B14
:10719000880F821710F447980895479A089584B786
:1071A000877F84BF0FB6F894A895809160008861AE
:1071B00080936000109260000FBE90E880E00FB6F0
:1071C000F89490936100809361000FBE81E085BFC9
:1071D00082E085BF3F9A869A879AE1E6F0E0908345
:1071E000108247988F988E98109289009AEF90930A
:1071F000880080936F0083E08093810008951F9240
:107200001FB61F9211242F938F939F93EF93FF9399
:1072100010928500109284008091BE019091BF0170
:10722000009741F001979093BF018093BE01892B95
:1072300009F48F988091BC019091BD01009741F0B5
:1072400001979093BD018093BC01892B09F48E981E
:10725000E0E0F0E085919491019649F08091BA01C7
:107260009091BB0101969093BB018093BA01FF916D
:10727000EF919F918F912F911F901FBE1F90189596
:1072800042E061EC82E00BD342E161E883E007D3A6
:1072900042E160E884E003C38091C501982F9F77A5
:1072A0009132B9F49091C6019032A1F0913289F4F3
:1072B000813A79F48091E800877F8093E80067E065
:1072C00070E083E091E020D48091E8008B77809398
:1072D000E80008958132E9F78091E800877F809384
:1072E000E80067E070E083E091E062D48091E8001C
:1072F0008E77EDCF7F928F929F92AF92BF92CF9277
:10730000DF92EF92FF920F931F93CF93DF9384E06E
:107310008093E9008091E80082FF01C28E9A84E6A2
:1073200090E09093BD018093BC01DCDE082F853492
:1073300091F48CE89CE39093BB018093BA0107B66B
:1073400000FCFDCFF999FECF81E180935700E895CD
:107350008DE0DFDE38C08B31B1F1EFEBE80FE433C5
:1073600008F092C0F0E0EE5BF04C5CC5BBDEF0CF05
:1073700084E4CFDE80E0EDCF89E5EBCFB3DEC82F2C
:10738000B1DE2C2F30E0322F2227330F90E0880F10
:10739000991F822B932B092E000CAA0BBB0B8093F9
:1073A000C0019093C101A093C201B093C301D0CF9B
:1073B00083E5CFCFC0EBD1E007EB11E08991A9DEE7
:1073C0000C171D07D9F783E08093E9009091E8003E
:1073D0008091E8008E778093E80095FF93C18091BB
:1073E000E80080FF99C184E08093E9008091E80083
:1073F0008B778093E80093C181E38BDE80E3A9CF94
:1074000087E887DE85E985DE8EE1A3CFE0E0F0E066
:1074100083E095E080935700E89507B600FCFDCF28
:1074200090935700E89507B600FCFDCFE058FF4F5A
:10743000E11520E7F20771F78BCF89E0E1E0F0E09A
:1074400080935700849185CF89E0E0E0F0E0F8CFA9
:1074500089E0E3E0F0E0F4CF89E0E2E0F0E0F0CFB3
:1074600089E557DE80E055DE80E873CF1092BB01DE
:107470001092BA0137DED82F35DEC82F33DE182F31
:107480008BEB810F823010F08FE363CF10926F008F
:10749000073609F045C081E180935700E89500E088
:1074A000BB24B394209721F482E080936F008BCFAC
:1074B000C090C001D090C101E090C201F090C30122
:1074C0001634C1F4E02FF0E0EC29FD29849121DE8F
:1074D000011569F082E0C80ED11CE11CF11CC092BC
:1074E000C001D092C101E092C201F092C3010B250C
:1074F0002197D8CFD701C601B695A79597958795BF
:1075000097D407DEE2E0CE0ED11CE11CF11CC09244
:10751000C001D092C101E092C201F092C301E8CF54
:10752000C090C001D090C101E090C201F090C301B1
:10753000163441F483E0F60180935700E89507B6CE
:1075400000FCFDCF209729F4163461F18DE0E1DDD8
:10755000ABCF163499F510E000E077247394011551
:1075600051F18090C0019090C101A090C201B090F3
:10757000C301B8DD982F812FF4010C0170925700E0
:10758000E8951124F2E08F0E911CA11CB11C809291
:10759000C0019092C101A092C201B092C30107251F
:1075A0002197E9F685E0F60180935700E89507B644
:1075B00000FCFDCFCBCF96DD182FF1CF93DD682FE8
:1075C0008091C0019091C101A091C201B091C3010D
:1075D000B695A7959795879545D48091C0019091D0
:1075E000C101A091C201B091C3010296A11DB11DBC
:1075F0008093C0019093C101A093C201B093C301D5
:107600002197A0CFC091C001D091C1016BDD90E066
:1076100021E0FE010C0120935700E895112498CE3B
:10762000C090C001D090C101E090C201F090C301B0
:1076300059DDF601E16090E021E00C012093570054
:10764000E8951124F2E0CF0ED11CE11CF11CC09290
:10765000C001D092C101E092C201F092C30178CE84
:10766000E091C001F091C10185E080935700E89559
:1076700007B600FCFDCF6CCEE091C001F091C101D6
:10768000C591D4918D2F45DD8C2F63CE2BDD682FD6
:107690008091C0019091C101A091C201B091C3013C
:1076A000B695A79597958795DDD38091C001909168
:1076B000C101A091C201B091C3010296A11DB11DEB
:1076C0006ECEC090C001D090C101E090C201F09098
:1076D000C301D701C601B695A79597958795A8D3FD
:1076E00018DD22E0C20ED11CE11CF11CC092C001C9
:1076F000D092C101E092C201F092C30164CE8EB378
:10770000811569F08091E80080FFF9CF8091E80051
:107710008E778093E80063CE8EB3811160CEDF91C7
:10772000CF911F910F91FF90EF90DF90CF90BF907E
:10773000AF909F908F907F900895E0900008F09018
:107740000108109201081092000814B71EBB14BE65
:107750000FB6F894A89580916000886180936000CE
:10776000109260000FBE81E090E062D382508D3FA6
:1077700090F46FEF80E090E063D3C2E0D0E06FEF71
:10778000CE015ED32196CF3F23E0D207C1F76FEF42
:1077900081E090E055D310FF21C0E0E0F0E085915A
:1077A00094910196D9F0D3DCFADC8FEF93E040D3CB
:1077B0008B3B09F4CCDCDED078941092BB011092A4
:1077C000BA018091020181112BC08091E00081609B
:1077D0008093E000BCDC80E090E0089513FF0DC0D2
:1077E00080910001909101018E159F0531F0E0E03C
:1077F000F0E0859194910196B1F66FEF80E090E012
:107800001FD3C2E0D0E06FEFCE011AD32196CF3F55
:1078100083E0D807C1F76FEF81E090E011D3C4CFC8
:1078200069DDEFD28091BA019091BB0181389E430E
:1078300010F0109202019DDCC4CFFA01292F30E034
:1078400022303105C1F02330310541F021303105BE
:10785000B9F080E090E020E030E00AC08115A9F0A6
:107860008130C1F08230A9F78EE290E02AE031E069
:107870003183208308958EE390E020E631E0F8CF55
:1078800082E190E02EE931E0F3CF84E090E02CE556
:1078900031E0EECF82E290E02AE331E0E9CF80935D
:1078A000E900EBEEF0E0808181608083EDEEF0E0B6
:1078B00010826093EC0040838091EE00881F88273F
:1078C000881F08958091C50187FF11C08091E8004D
:1078D00082FF06C08091E8008B778093E80003C0A8
:1078E0008EB38111F3CF08958EB38115E1F38091AA
:1078F000E80080FFF9CF8091E8008E77EECF0F93FC
:107900001F93CF93DF9341D048D0C8EDD0E088815A
:107910008F77888388818068888388818F7D88833A
:1079200019BC1EBA1092C40100EE10E0F80180816B
:107930008B7F808388818160888342E060E080E083
:10794000AEDFE1EEF0E080818E7F8083E2EEF0E05A
:10795000808181608083808188608083F80180815C
:107960008E7F8083888180618883DF91CF911F9192
:107970000F910895E7EDF0E08081816080838AE4D3
:1079800082BF81E08093CD01BACFE8EDF0E0808145
:107990008E7F80831092E20008951092DA00109298
:1079A000E10008951F920F920FB60F9211242F93AA
:1079B0003F934F935F936F937F938F939F93AF9377
:1079C000BF93EF93FF938091DA0080FF17C08091FF
:1079D000D80080FF13C08091DA008E7F8093DA0098
:1079E0008091D90080FF86C080E189BD82E189BD98
:1079F00009B400FEFDCF81E08EBB02D28091E10090
:107A000080FF17C08091E20080FF13C08091E200E8
:107A10008E7F8093E2008091E20080618093E2009B
:107A20008091D80080628093D80019BC85E08EBB1D
:107A3000E7D18091E10084FF27C08091E20084FFBC
:107A400023C080E189BD82E189BD09B400FEFDCF7C
:107A50008091D8008F7D8093D8008091E1008F7E47
:107A60008093E1008091E2008F7E8093E20080911C
:107A7000E20081608093E2008091C401811509F4E5
:107A80003DC084E08EBBBCD18091E10083FF21C06A
:107A90008091E20083FF1DC08091E100877F809389
:107AA000E10082E08EBB1092C4018091E1008E7FE4
:107AB0008093E1008091E2008E7F8093E2008091CC
:107AC000E20080618093E20042E060E080E0E7DE77
:107AD00097D1FF91EF91BF91AF919F918F917F913E
:107AE0006F915F914F913F912F910F900FBE0F902B
:107AF0001F90189519BC1EBA83D180CF8091E300E6
:107B000087FDBFCF81E0BECFFC019B018091CB01FF
:107B10009091CC018617970718F0672B61F0C90187
:107B200040E0009771F441110CC08091E80082FFA1
:107B300034C080E008958091E8008E778093E8005B
:107B4000EECF2EB3211591F1253061F12091E8009F
:107B500023FD2AC02091E80022FDE7CF2091E80014
:107B600020FFDFCF3091F3002091F200009719F051
:107B70002830310558F041E02830310509F040E067
:107B80002091E8002E772093E800CBCF41914093DD
:107B9000F10001972F5F3F4FE9CF8EB3811531F090
:107BA000853019F683E0089581E0089582E0089514
:107BB000FC01CB01009769F42091E8002B7720931A
:107BC000E800009731F48091E80080FF1BC080E05E
:107BD00008952EB32115F9F02530C9F02091E80061
:107BE00023FD17C02091E80022FFF3CF3091F3006E
:107BF0002091F200232B01F32091F10021930197B2
:107C0000D9F2F4CF8EB3811531F08530E1F683E0FF
:107C1000089581E0089582E008950F931F93CF9314
:107C2000DF9300D0CDB7DEB785EC91E0FC01019683
:107C30002091F100208321E08D3C9207B9F72CDBE5
:107C40008091E80083FF80C08091C5019091C601BA
:107C50009A3008F079C0E92FF0E0EA58F04CE2C021
:107C6000823809F071C08091C90187708093E90062
:107C70008091EB0085FB882780F91092E9009091B4
:107C8000E800977F9093E8008093F1001092F10054
:107C90008091E8008E771FC0823009F055C0809136
:107CA000C701811113C08091C9018770811509F442
:107CB0004BC08093E9002091EB0020FF07C0933078
:107CC00071F48091EB0080628093EB001092E900E8
:107CD0008091E800877F8093E800F4DD35C09091C3
:107CE000EB0090619093EB0021E030E0A90102C02D
:107CF000440F551F8A95E2F74093EA001092EA007C
:107D00008091EB008860E0CF81111EC01091C70107
:107D10001F770FB7F8948091E800877F8093E80081
:107D2000D1DD8091E80080FFFCCF8091E300807876
:107D3000812B8093E30080688093E30083E011113E
:107D400001C082E08EBB0FBF8091E80083FF0AC0B4
:107D50008091EB0080628093EB008091E800877F48
:107D60008093E8000F900F90DF91CF911F910F91BA
:107D700008958058823040F7AE014F5F5F4F6091A9
:107D8000C9018091C7019091C80157DDBC01892BC1
:107D9000D9F28091E800877F8093E80089819A81F9
:107DA000B3DE8091E8008B778093E800CDCF8038F8
:107DB00059F68091E800877F8093E8008091C401A4
:107DC0008093F10065CF8111BFCF9091C7019230B0
:107DD00008F0BACF8091E800877F8093E800909305
:107DE000C40170DD8091C401811521F084E08EBB57
:107DF00047DAAACF8091E30087FDF8CF81E0F7CF83
:107E00000895CF938EB3811559F0C091E900C770E2
:107E10001092E9008091E80083FDFFDEC093E90045
:107E2000CF910895EE0FFF1F0590F491E02D099476
:107E3000F999FECF92BD81BDF89A992780B5089532
:107E4000262FF999FECF92BD81BDF89A019700B413
:107E5000021639F01FBA20BD0FB6F894FA9AF99AB3
:107E60000FBE0895262FF999FECF1FBA92BD81BD8E
:107E700020BD0FB6F894FA9AF99A0FBE01960895AC
:107E8000F894FFCFBE39363A023B463B443A243A97
:107E9000443A443A443A443A443AA839443A283AAB
:107EA000443AA8392C3A3C3BDA39B639443AFC39E1
:107EB000443A443A443A443A443A443A443A443AD2
:107EC000443A443ABC39303A103B613B063A443AB2
:107ED000363A443A443A443A443A443A303B443AD3
:107EE000443AD839443A1D3A003AB839303E4C3E0B
:107EF000A43E4C3EA43E843EB93EA43ED73EE33E63
:107F0000777701000000000000082E03770077005B
:107F100077002E00640065006600690061006E0055
:107F20006300650064006900670069007400610017
:107F30006C002E00750073000000220375004200E3
:107F400041004400200042006F006F0074006C008C
:107F50006F00610064006500720000000403090402
:107F600009023E0002010080320904000001020201
:107F70000100052400100104240204052406000168
:107F8000070582030800FF09040100020A0000003F
:107F90000705040210000107058302100001120109
:107FA000100102000008C016E105010002010001F5
:087FB0007542414431763100B5
:040000030000700089
:00000001FF
