:020000040000FA
:100000000C9437010C945F010C945F010C945F0118
:100010000C945F010C945F010C945F010C945F01E0
:100020000C945F010C94B50D0C94AE0A0C942B0B40
:100030000C945F010C945F010C945F010C945F01C0
:100040000C945F010C945F010C945F010C945F01B0
:100050000C945F010C945F010C945F010C94640A92
:100060000C945F010C94830D0C945D0D0C945F0156
:100070000C945F010C945F010C945F010C945F0180
:100080000C945F010C945F010C945F010C945F0170
:100090000C945F010C945F010C945F010C945F0160
:1000A0000C945F010C945F010C945F01080B00023B
:1000B0000202000009040000010202000005240001
:1000C0001001052401010104240206052406000193
:1000D0000705810310004009040100020A00000026
:1000E00007050202400000070583024000000403E8
:1000F000090412010002EF020140C016E1050001EF
:10010000010203017777772E64656669616E636526
:100110006469676974616C2E75730075424144208F
:1001200062792044656669616E6365204469676928
:1001300074616C0000000000240027002A002D00DC
:1001400030000000000200090F0000030401000C51
:10015000000000000000000000000000000000009F
:100160000000000000000000002A2B280000000012
:10017000000000000000000000000000000000007F
:10018000002C9EB4A0A1A2A434A6A7A5AE362D37FC
:1001900038271E1F20212223242526B333B62EB74D
:1001A000B89F8485868788898A8B8C8D8E8F909165
:1001B00092939495969798999A9B9C9D2F3130A3F2
:1001C000AD350405060708090A0B0C0D0E0F1011BA
:1001D00012131415161718191A1B1C1DAFB1B0B540
:1001E0000005010906A1018502050719E029E715A7
:1001F0000025017501950881029501750881039517
:10020000067508150025730507190029738100C0BC
:10021000000000002300260029002C002F00000011
:100220000000250028002B002E00310004040404E7
:10023000040304050202020204030202020206068B
:100240000606060604040202020404040802011061
:1002500040804010204080408008020401804020FF
:10026000100201108010204040202F0E1414112481
:100270001FBECFEFDAE0DEBFCDBF12E0A0E0B1E0FD
:10028000E8EEFAE202C005900D92AA3BB107D9F759
:1002900024E0AAEBB2E001C01D92A13BB207E1F756
:1002A00011E0C6E3D1E004C02197FE010E94611570
:1002B000C533D107C9F70E94750F0C9467150C94CC
:1002C0000000CF93DF93FC01818190916004482F5F
:1002D000490F5527551F483051059CF5A281B38120
:1002E000109709F52CE534E0338322832081209395
:1002F0005E0480935F0480916104820F808320916B
:100300006204A22FB09163048A2F821B8917E8F43C
:1003100081813D91C82FD0E0C45FDE4F38838F5F6D
:100320008183F2CFD90118962D913C91199721150F
:100330003105C1F72CE534E019963C932E931897BC
:10034000D5CF80E0DF91CF91089581E0FBCF83E0AE
:100350008093E9008091F200882319F08AE380936A
:10036000E8000895FC0180916E03882311F13FB7E6
:10037000F89482E08093E9002091F200822F90E0CF
:100380001816190614F481E090E0882339F02898B3
:1003900044E640936D034091F1004083222339F0FD
:1003A0002091F200211103C02BE62093E8003FBF0B
:1003B00008958FEF9FEF089581508F3008F047C068
:1003C000E82FF0E0EA51FE4F0C946115030207029A
:1003D000F501FB01FF012702270227020A02100292
:1003E000140218021E0227022202809180008F77D9
:1003F000809380000895809180008F7DF9CF809157
:100400008000877FF5CF84B58F7784BD089584B54C
:100410008F7DFBCF809190008F778093900008951F
:10042000809190008F7DF9CF80919000877FF5CFEC
:100430008091C0008F778093C00008958091C000A4
:100440008F7DF9CF8091C200877F8093C20008958D
:100450001F93CF93DF93282F30E0F901EE5BFE4F1F
:100460008491F901E55BFD4FD491F901E45DFD4F05
:10047000C491CC23A9F0162F81110E94DC01EC2F2E
:10048000F0E0EE0FFF1FE25EFD4FA591B4918FB734
:10049000F894EC91111108C0D095DE23DC938FBF46
:1004A000DF91CF911F910895DE2BF8CFCF93DF938B
:1004B00090E0FC01E55BFD4F2491845D9D4FFC01C4
:1004C00084918823C9F090E0880F991FFC01EC5CAF
:1004D000FE4FA591B491FC01E25EFD4FC591D49110
:1004E00061110DC09FB7F8948C91209582238C9355
:1004F0008881282328839FBFDF91CF9108956230A0
:1005000051F49FB7F8943C91822F809583238C936C
:10051000E8812E2BEFCF8FB7F894EC912E2B2C93F4
:100520008FBFEACF8230910538F0880F991F880F6E
:10053000991F05970197F1F708953FB7F8948091B7
:10054000690390916A03A0916B03B0916C0326B587
:10055000A89B05C02F3F19F00196A11DB11D3FBFFB
:10056000BA2FA92F982F8827BC01CD01620F711DCA
:10057000811D911D42E0660F771F881F991F4A95C4
:10058000D1F708958F929F92AF92BF92CF92DF9250
:10059000EF92FF924B015C010E949D026B017C0176
:1005A0000E949D026C197D098E099F09683E734067
:1005B00081059105A8F321E0821A9108A108B108EC
:1005C00088EEC80E83E0D81EE11CF11C8114910452
:1005D000A104B10429F7FF90EF90DF90CF90BF9076
:1005E000AF909F908F90089508950C94A70140912B
:1005F000090350910A032091070330910803421721
:100600005307B4F49091E8009570E1F39091E800FD
:1006100092FD19C08093F1008091090390910A0323
:1006200001968F739927892B19F48EEF8093E80038
:100630008091090390910A03019690930A03809395
:10064000090381E0089580E00895EF92FF920F93EF
:100650001F93CF93DF93F82E192FE62E042F81E0FE
:10066000860F880F0E94F70283E00E94F702CF2DC9
:10067000D12FEC0EFD2EF11CCE15DF05B9F007FFD2
:1006800013C0FE0184910E94F702182F80E00E949F
:10069000F702812321968111EFCFDF91CF911F9136
:1006A0000F91FF90EF9008958881EDCF81E0F5CF15
:1006B000DF92EF92FF920F931F93CF93DF93D82E89
:1006C0008A01EB017B01E40EF51ECE15DF0559F022
:1006D000D7FE12C0FE0184910E94F702219681117B
:1006E000F4CF0FEF1FEFC801DF91CF911F910F9152
:1006F000FF90EF90DF9008958881EECF2FB7F894A8
:1007000087708093E9009091E800892F807295FFAF
:1007100004C09091F20080E4891B2FBF08957F925E
:100720008F929F92AF92BF92CF92DF92EF92FF9201
:100730000F931F93CF93DF93C82E8B017A01809183
:100740006E03811110C08FEF9FEFDF91CF911F914A
:100750000F91FF90EF90DF90CF90BF90AF909F9060
:100760008F907F90089580910D0380FF05C0809148
:10077000E00082608093E000CE2DDF2DD12C8AEF47
:10078000B82E8C2D8770982E8C2D8072882E8C2DF3
:100790008074782E9AE3A92E209719F4DD2009F4AD
:1007A00052C08C2D0E947E0381110AC0BA94BB20D6
:1007B00051F261E070E080E090E00E94C202ECCF74
:1007C0008C171D0611F00CF08C2F9FB7F8949092A7
:1007D000E9002091E80025FD02C09FBFDDCF282F52
:1007E00030E0C21BD30B882029F08150A0F010927A
:1007F000F100FBCFF801C7FC0AC0815050F04191D5
:100800004093F100FACF44914093F100319681502A
:10081000D0F7020F131FDD2021F0A092E800D12CA9
:10082000DCCF8091E80085FD07C0A092E800DD24C0
:10083000D394209791F2F3CF209779F6772069F23D
:10084000A092E800CACF5D9884E680930C03C701AC
:100850007CCF615030F02091F100FC0120830196A3
:10086000F8CF289884E680936D030895AF92BF92E5
:10087000CF92DF92EF92FF920F931F93CF93DF936C
:100880006C017B018B01040F151FEB015E01AE189B
:10089000BF08C017D10759F06991D601ED91FC91BD
:1008A0000190F081E02DC6010995892B79F7C501EA
:1008B000DF91CF911F910F91FF90EF90DF90CF903C
:1008C000BF90AF9008958091FF0281110DC082E02A
:1008D0008093FB0284E08093FC021092FE0210924F
:1008E000FD0281E08093FF028BEF92E00895EF928A
:1008F000FF921F93CF93DF931F92CDB7DEB77C019A
:1009000080916D0481112AC011E01093600410934E
:10091000610486E694E090936304809362041092ED
:100920006504109264048FE391E090935D048093DA
:100930005C04109268041092670410926A0410928A
:10094000690410936B0410936C0481EC809366042B
:100950000E9463040E94610110936D0482E0898308
:1009600041E050E0BE016F5F7F4F80915F040E94C5
:100970008F0397FD08C080915F0448E050E0B70105
:1009800080640E948F030F90DF91CF911F91FF90A1
:10099000EF9008950F931F93CF93DF931F92CDB7DE
:1009A000DEB782E0898342E450E06CEA70E080E8E0
:1009B0000E9458030E946304DC0112960D911C9161
:1009C0000115110589F0D801ED91FC910280F381A8
:1009D000E02DBE016F5F7F4FC801099597FD04C0F0
:1009E000F80100851185ECCF89810F90DF91CF91BF
:1009F0001F910F910895FC01538D448D252F30E0F8
:100A0000842F90E0821B930B541710F0CF9608951B
:100A100001970895FC01918D828D981761F0A28D48
:100A2000AE0FBF2FB11D5D968C91928D9F5F9F730E
:100A3000928F90E008958FEF9FEF0895FC01918DC4
:100A4000828D981731F0828DE80FF11D858D90E031
:100A500008958FEF9FEF0895FC01918D228D892FCE
:100A600090E0805C9F4F821B91098F7399270895B6
:100A70008FE693E00E942C0521E0892B09F420E009
:100A8000822F089580E090E0892B29F00E9438059C
:100A900081110C9400000895FC01A48DA80FB92FBA
:100AA000B11DA35ABF4F2C91848D90E001968F7396
:100AB0009927848FA689B7892C93A089B1898C91B5
:100AC00082748C93938D848D981306C00288F38969
:100AD000E02D80818F7D80830895EF92FF920F93A8
:100AE0001F93CF93DF93EC0181E0888F9B8D8C8DDA
:100AF000981319C0E889F989808185FF14C09FB7D0
:100B0000F894EE89FF896083E889F989808182748D
:100B100080839FBF81E090E0DF91CF911F910F9183
:100B2000FF90EF900895F62E0B8D10E00F5F1F4F92
:100B30000F731127E02E8C8D8E110CC00FB607FCA1
:100B4000FACFE889F989808185FFF5CFCE010E942F
:100B50004C05F1CFEB8DEC0FFD2FF11DE35AFF4F4C
:100B6000F0829FB7F8940B8FEA89FB8980818062BD
:100B7000CFCFCF93DF93EC01888D8823B9F0AA897A
:100B8000BB89E889F9898C9185FD03C0808186FD48
:100B90000DC00FB607FCF7CF8C9185FFF2CF808197
:100BA00085FFEDCFCE010E944C05E9CFDF91CF91BB
:100BB0000895CF93DF93EC0180910B01882331F0EE
:100BC00083E00E948F031816190634F081E090E04C
:100BD0009B838A8380E090E0DF91CF910895CF934B
:100BE000DF931F92CDB7DEB76983DC01ED91FC91F5
:100BF0000280F381E02D41E050E0BE016F5F7F4F46
:100C000009950F90DF91CF91089583E00E947E03B4
:100C100090E00895CF93DF931F92CDB7DEB7FC012C
:100C20008485958597FD08C02FEF3FEF3587248792
:100C30000F90DF91CF910895CE0101960E94B201ED
:100C4000019719F4898190E0F3CF8FEF9FEFF0CFF8
:100C50000F931F93CF93DF931F92CDB7DEB78C0115
:100C6000FC018485958597FF0BC0CE0101960E94FB
:100C7000B201019771F4898190E0F801958784872A
:100C8000F801848595850F90DF91CF911F910F9189
:100C900008958FEF9FEFF1CFFC018485958597FD37
:100CA0000BC09FB7F89482E08093E9008091F20036
:100CB0009FBF90E0019608959FB7F89482E08093DB
:100CC000E9008091F2009FBF90E008952091110308
:100CD000309112032817390771F490910F03809116
:100CE0001003981741F0E0910F03F0E0E554FD4F39
:100CF000808190E008958FEF9FEF0895EF92FF922B
:100D00000F931F93CF93DF93DC015C96ED90FC90E3
:100D10005D97E114F10479F481E090E013969C93DF
:100D20008E93129790E080E0DF91CF911F910F9109
:100D3000FF90EF9008955196ED91FC915297509647
:100D40008C915097982F90950FB75E962C915E9747
:100D5000122F127021FD6095F8942081112319F152
:100D6000282B2083E7012197F1F728E0462F50E058
:100D7000308160FF1AC0382B3083E7012197F1F7EB
:100D8000BA0175956795215089F7112381F080810B
:100D9000892380830FBF5C968D919C910197F1F719
:100DA00081E090E0C1CF2923DCCF3923E5CF9081CA
:100DB000892BEFCF209111033091120328173907A7
:100DC00061F48091100320910F0390E0805C9F4FAD
:100DD000821B91098F739927089590E080E0089510
:100DE000209111033091120328173907B9F490911B
:100DF0000F0380911003981789F0E0910F03F0E042
:100E0000E554FD4F808120910F0330E02F5F3F4F6D
:100E10002F73332720930F0390E008958FEF9FEFF8
:100E20000895DC01FB0112962C9112978481958123
:100E30002817190641F491818081813A31F49D7F10
:100E400081E0913009F080E008958132E1F79B3034
:100E500029F482811F968C9381E008959A3099F746
:100E6000828150968C93F8CFDC01FB0188E480836B
:100E700089E4818384E482831D969C911D979F70F1
:100E80009F5B93831D968D919C9124E09695879509
:100E90002A95E1F78F708F5B848385E00895EF9248
:100EA000FF920F931F93CF93DF93FB012081213893
:100EB00071F52381223259F5DC0112964C9124817F
:100EC00035814217130619F5EC010B851C85F12CB1
:100ED000E12C0115110589F0F801448155816281E9
:100EE000738180E80E9458038F3F980749F0E80E0D
:100EF000F91ED8010D911C91ECCF81E08F87C701BD
:100F0000DF91CF911F910F91FF90EF90089590E0A6
:100F100080E0F6CFCF93DF93CDB7DEB769970FB6FA
:100F2000F894DEBF0FBECDBFFC01DB018C918F5F5B
:100F30008C939E012D5F3F4F8DE0D9011D928A95C4
:100F4000E9F729E0298384E08A8391E09D8383E0A7
:100F50008E832A8721E22B879C879D879F8722E2A9
:100F6000288B27E02B8B25E02C8B8E8B20E430E028
:100F7000388F2F8B998F82818B8395858685998B6E
:100F80008A8B838180688D8B49E150E0BE016F5F61
:100F90007F4F80E00E94580369960FB6F894DEBF39
:100FA0000FBECDBFDF91CF910895CF92DF92EF9228
:100FB000FF920F931F93CF93DF936C01EB017B01A3
:100FC000E40EF51E10E000E0CE15DF0581F069911A
:100FD0006D30D1F3D601ED91FC910190F081E02DBF
:100FE000C6010995892B19F00F5F1F4FEDCFC8017E
:100FF000DF91CF911F910F91FF90EF90DF90CF90F5
:101000000895EF92FF921F93CF93DF93EC01162F79
:10101000E8E7E60F683888F4862F90E067FF50C055
:10102000FC01E058F10921E030E001C0220FEA950F
:10103000EAF78C81822B8C83E0E08E818E17D9F0C9
:101040008F81E817C1F08885E817A9F08985E8172E
:1010500091F08A85E81779F08B85E81761F0DE0159
:10106000169690E080E02D9121115EC08C0F9D1F9F
:10107000DC011696EC93CE0104960E947704EE24D0
:10108000E394F12C183848F11858DE0186E011235A
:1010900041F016969C911697191303C016961C9250
:1010A0001697815011968111F2CFCE0104960E94BD
:1010B0007704C701DF91CF911F91FF90EF900895C2
:1010C000EC85FD85E80FF91FE491E11119C081E07D
:1010D00090E09B838A83F12CE12C812F90E017FF15
:1010E0002FC0FC01E058F10981E090E001C0880FB9
:1010F000EA95EAF780959C8189238C8310E0C5CF1F
:101100008E2F807C803C49F48C8180648C83EF73CB
:10111000E23309F092CFE4E690CFE7FFF9CF8C817C
:1011200082608C83EF77F4CF01968630910509F0C9
:101130009ACF81E090E09B838A83F12CE12CA2CFAF
:10114000EC85FD85E80FF91F1491112309F4B1CF47
:10115000812F807C803C49F48C818F7B8C831F7332
:10116000123309F092CF14E690CF17FFF9CF8C819C
:101170008D7F8C831F77F4CF089590E080E00895F1
:10118000CF92DF92EF92FF920F931F93CF93DF9353
:10119000D0E0C0E010E000E0EE24E394F12CFE018A
:1011A000EC5BFE4F8491FE01E35BFD4FC490FE01BA
:1011B000E25DFD4FD490DD2039F181110E94DC0108
:1011C000ED2DF0E0EE0FFF1FE05FFD4FA591B49114
:1011D000EC91CE22C9F0C7010C2E02C0880F991FD6
:1011E0000A94E2F780959095082319232196CA3036
:1011F000D105A9F6C801DF91CF911F910F91FF9002
:10120000EF90DF90CF900895C7010C2E02C0880F99
:10121000991F0A94E2F7082B192BE8CFFB010190E4
:101220000020E9F73197AF01461B570BDC01ED9128
:10123000FC910280F381E02D09948F929F92AF92EE
:10124000BF920F931F93CF93DF93CDB7DEB7A197D4
:101250000FB6F894DEBF0FBECDBF19A2423008F41E
:101260004AE08E010F5D1F4F842E912CB12CA12CD2
:10127000A50194010E941C15E62FB901CA01EA30AC
:1012800004F5E05DD801EE938D01232B242B252B53
:1012900079F790E080E0109729F0BD0181E994E0B2
:1012A0000E940E09A1960FB6F894DEBF0FBECDBF07
:1012B000DF91CF911F910F91BF90AF909F908F9032
:1012C0000895E95CDFCF0F931F93CF93DF93EC0179
:1012D0000E940E098C0165E671E0CE010E940E09A4
:1012E000800F911FDF91CF911F910F9108959091E1
:1012F000E1008091BA0294FF0CC0811103C081E02B
:101300008093BA028091E1008F7E8093E10080E0BB
:10131000089581111092BA0208950C940E09FF925B
:101320000F931F93CF93DF93EC01F62E0881198161
:10133000C8010E94D414F81621F06F2DC8010E9434
:10134000DC14CE01DF91CF911F910F91FF90089592
:101350000C94D4140F931F93CF93DF9303E213E005
:10136000C4E0D0E0CE010E94A809F80181938F016A
:101370002196C534D105B1F703E113E0CE010E94F7
:10138000A809F80181938F012196C535D105B1F7E0
:10139000DF91CF911F910F910895CF9383E090E05B
:1013A0000E94A809C82F82E090E00E94A8099C2F03
:1013B000CF9108950F931F93CF93DF9300D0CDB7B4
:1013C000DEB761E083E10E9428021A8219826FEF82
:1013D000CE0101960E948F0902E010E0C8010E9430
:1013E000D4148F3F21F06FEFC8010E94DC140F5F0F
:1013F0001F4F011584E0180789F781E090E09A8378
:1014000089836FEFCE0101960E948F0960E083E12E
:101410000E9428020F900F90DF91CF911F910F91A2
:101420000895CF92DF92EF92FF920F931F93CF9385
:10143000DF9300D0CDB7DEB70E947C14C12CD12C35
:101440007601CA94A70196010E94EA14CB010E947A
:1014500092020E94C0088C010E94CD09081719074A
:1014600041F10E947C14A70196010E94EA14CB016D
:101470000E9492020E947C14A70196010E94EA1425
:10148000CB010E94920281E090E09A83898362E01E
:10149000CE0101960E948F090E947C14A70196013B
:1014A0000E94EA14CB010E9492020E94DA090C9475
:1014B00000000F900F90DF91CF911F910F91FF903F
:1014C000EF90DF90CF9008951F920F920FB60F927A
:1014D00011242F933F938F939F93AF93BF9380914A
:1014E000650390916603A0916703B0916803309102
:1014F000640323E0230F2D3758F50196A11DB11D7C
:10150000209364038093650390936603A09367031D
:10151000B09368038091690390916A03A0916B0373
:10152000B0916C030196A11DB11D80936903909346
:101530006A03A0936B03B0936C03BF91AF919F912B
:101540008F913F912F910F900FBE0F901F90189584
:1015500026E8230F0296A11DB11DD2CF1F920F9234
:101560000FB60F9211242F933F934F935F936F9376
:101570007F938F939F93AF93BF93CF93EF93FF93FB
:10158000C091E1008091E100837F8093E100C3FF7F
:101590000FC01092E90081E08093EB001092EC0004
:1015A00082E38093ED0010926E0388E08093F00058
:1015B000C2FF1AC00E94A70180910C03882341F04A
:1015C00080910C03815080930C03811101C05D9ABE
:1015D00080916D03882341F080916D038150809349
:1015E0006D03811101C0289AC4FF23C08091E200DD
:1015F0008E7E81608093E2008091E1008F7E8093F7
:10160000E10080910D038E7E806180930D03FF9138
:10161000EF91CF91BF91AF919F918F917F916F91FA
:101620005F914F913F912F910F900FBE0F901F90A0
:101630001895C0FFECCF8091E2008E7E8061809390
:10164000E2008091E1008E7E8093E10080910D03A5
:101650008E7E8160DACF1F920F920FB60F92112407
:10166000CF92DF92EF92FF920F931F932F933F93AE
:101670004F935F936F937F938F939F93AF93BF939A
:10168000EF93FF93CF93DF93CDB7DEB76C97DEBFB9
:10169000CDBF1092E9008091E80083FF25C068E08B
:1016A000CE0145960E94290482EF8093E8008D893F
:1016B00087FF39C09091E80090FFFCCF982F90767B
:1016C00009F034C19E894F89588D2F89F88C91116A
:1016D00031C0803861F580910E038093F100109243
:1016E000F1008EEF8093E8006C960FB6F894DEBFA1
:1016F0000FBECDBFDF91CF91FF91EF91BF91AF9121
:101700009F918F917F916F915F914F913F912F9119
:101710001F910F91FF90EF90DF90CF900F900FBE31
:101720000F901F9018959EEF9093E800C7CF1092EE
:10173000F100D5CF913059F48111D3CF413051050B
:1017400081F680910E038D7F80930E03CACF933074
:1017500049F48111C6CF4130510519F680910E032D
:101760008260F2CF953041F48091E80080FFFCCF99
:1017700020682093E300B5CF963009F0A9C00B8D07
:101780001C8D22E01092E90010920A0310920903C6
:10179000F2122EC010920803109207030E94CA048E
:1017A0001F8299E09983FA8291E09E8390EA98875C
:1017B0009AEF99872091090330910A03275F3F4FE1
:1017C0003C832B838D831092E90010920A031092C0
:1017D0000903109308030093070349E050E0BE019A
:1017E0006F5F7F4F80E00E9458030E94CA0479CF48
:1017F00010930803009307030E946304DC01129610
:101800000D911C910115110509F451C1D801ED91FB
:10181000FC910480F581E02DBE016B5E7F4FC80115
:101820000995009709F03EC1F80100851185EACFBE
:10183000F3E0FF120EC08F89882309F440C0823084
:1018400061F440E868E18BE191E00E942503811199
:1018500048CF81E28093EB0047CF813029F440E804
:1018600066E184E091E0F1CF833099F70E94630450
:10187000DC011296ED90FC908E010F5F1F4F680106
:10188000E114F10479F0D701ED91FC910680F78124
:10189000E02DB801C7010995080F111DF701E0847B
:1018A000F184EECFD8011C92F60101900020E9F7F7
:1018B0003197BF016C197D0940E0C601C6CF6EEEBD
:1018C00070E0FB01449150E080E80E94580309CF8A
:1018D000973009F4BECF983021F481E08093F10075
:1018E00000CF993009F0FDCE837009F0B2CFEDE062
:1018F000F1E081E031E096E32191222371F08093C1
:10190000E9003093EB00DF0111972C912093EC005C
:101910009093ED008F5F873079F78EE78093EA0030
:101920001092EA008F8980936E03DBCE8B8D9C8DA5
:101930001092E90010920A03109209039093080391
:1019400080930703898D811192C08E899D89913A78
:1019500049F4813209F07DCF47E050E064E071E066
:1019600080E0B3CF913209F074CF833269F48F896C
:10197000988DB0E0A0E08093000190930101A093C6
:101980000201B0930301ADCE803269F48091E8008A
:1019900082FFFCCF67E084E091E00E9429048BEF96
:1019A0008093E8009ECE823209F09BCE8F8980938F
:1019B0000B01EEEFFFE7859194918B3F9C4D51F128
:1019C000E0E0F8E08091040190910501A09106010A
:1019D000B0910701803B9440A105B105F1F48091DD
:1019E0000B0180FD1AC0EE3F8AE0F80789F587E712
:1019F00097E7918380838091600080930B0388E157
:101A00009BE00FB6F894A895809360000FBE90936A
:101A1000600067CEEEEFFAE0D5CF80819181873705
:101A2000974709F05ECEA895809160008861809309
:101A3000600080910B0380936000EE3F2AE0F20784
:101A400089F08091FE0A9091FF0A9183808349CEAC
:101A5000808191818737980751F29093FF0A809394
:101A6000FE0AC5CF1092FF0A1092FE0A3ACE0E94DB
:101A70006304DC0112960D911C910115110509F406
:101A8000E8CED801ED91FC910190F081E02DBE01EE
:101A90006B5E7F4FC8010995811123CEF801008547
:101AA0001185EBCF181619060CF41BCED2CEF1E03F
:101AB000FF12BECE62EF70E004CF1F920F920FB6FE
:101AC0000F9211242F933F934F935F936F937F93C4
:101AD0008F939F93AF93BF93EF93FF938FE693E022
:101AE0000E944C05FF91EF91BF91AF919F918F9113
:101AF0007F916F915F914F913F912F910F900FBE0A
:101B00000F901F9018951F920F920FB60F921124ED
:101B10002F938F939F93EF93FF93E0917F03F09127
:101B200080038081E0918503F091860382FD1BC0D4
:101B30009081809188038F5F8F7320918903821732
:101B400041F0E0918803F0E0E159FC4F958F8093DC
:101B50008803FF91EF919F918F912F910F900FBE6E
:101B60000F901F9018958081F4CF1F920F920FB69F
:101B70000F9211242F933F934F935F936F937F9313
:101B80008F939F93AF93BF93EF93FF93E0911103D4
:101B9000F0911203309749F0A685B7858585968D1B
:101BA00091FF14C09C918923A1F4FF91EF91BF9103
:101BB000AF919F918F917F916F915F914F913F91E5
:101BC0002F910F900FBE0F901F9018959C91892315
:101BD00061F7A389B4899C918589809589238C9329
:101BE000868997890197F1F7608D718DA685B785F4
:101BF000558538E020E0CB010197F1F7822F90E086
:101C000095958795282F4C91452309F020683150F0
:101C100091F7868D81FD20958091100390E00196CB
:101C20008F73992730910F03381799F0A091100303
:101C3000B0E0A554BD4F2C9380931003828D938DFB
:101C40000197F1F7A389B4898C919589892B8C939D
:101C5000ACCF868D8160868FF1CF0C94DC14CF934E
:101C6000109272031092710388EE93E0A0E0B0E04E
:101C70008093730390937403A0937503B0937603DA
:101C80002BE131E03093700320936F032DEC30E0B3
:101C900030937C0320937B032CEC30E030937E0365
:101CA00020937D0328EC30E03093800320937F0362
:101CB00029EC30E030938203209381032AEC30E05A
:101CC00030938403209383032EEC30E0309386031B
:101CD00020938503109288031092890310928A033F
:101CE00010928B0310920F0410920E048093100434
:101CF00090931104A0931204B09313048DE291E029
:101D000090930D0480930C048FEF9FEF9093190430
:101D10008093180410928604109285048BE491E05D
:101D2000909384048093830480917B04811113C079
:101D3000109276041092750481EE91E090937804ED
:101D4000809377048FE290E090937A0480937904F3
:101D500081E080937B0480916D0481112AC0C1E0F1
:101D6000C0936004C093610486E694E0909363049A
:101D70008093620410926504109264048FE391E0F2
:101D800090935D0480935C04109268041092670441
:101D900010926A0410926904C0936B04C0936C049F
:101DA00081EC809366040E9463040E946101C093E9
:101DB0006D04E0916704F0916804309709F08CC0DD
:101DC00085E794E0909368048093670480916904A8
:101DD00090916A042091790430917A04820F931FC4
:101DE00090936A048093690481E691E09093900453
:101DF00080938F048EB38093B00410929404109259
:101E0000930488EE93E0A0E0B0E080939504909373
:101E10009604A0939704B093980487E591E090937B
:101E20009204809391041092A8041092A704109237
:101E3000AA041092A9041092AC041092AB04109260
:101E4000AE041092AD046091AF046E7F6D7F60931D
:101E5000AF046695617081E0682780E10E942802E6
:101E600061E080E10E945602EBE5F2E0E491E0934C
:101E7000A104ECE3F2E0E491F0E0EE0FFF1FE25E7C
:101E8000FD4F859194919093A3048093A20460E008
:101E90008EE00E9456028091AF0481FD04C061E093
:101EA0008EE00E9428028EE080939D04E9E5F2E036
:101EB000E491E0939E04EAE3F2E0E491F0E0EE0FB7
:101EC000FF1FE05FFD4F859194919093A004809354
:101ED0009F04CF910895FC01808191810097D9F7EB
:101EE00085E794E09183808371CFCF93DF9300D017
:101EF000CDB7DEB7789484B5826084BD84B5816047
:101F000084BD85B5826085BD85B5816085BD8091C4
:101F10006E00816080936E0010928100809181003C
:101F20008260809381008091810081608093810034
:101F30008091800081608093800080919100826018
:101F400080939100809191008160809391008091B5
:101F500090008160809390008091C10084608093A4
:101F6000C1008091C10082608093C1008091C10056
:101F700081608093C1008091C30081608093C30021
:101F80008091C00082608093C0008091C200816017
:101F90008093C20080917A00846080937A0080915F
:101FA0007A00826080937A0080917A0081608093C9
:101FB0007A0080917A00806880937A0010926E0394
:101FC00010920E0310920D038091D70081608093D0
:101FD000D70080EA8093D80089B5806189BD89B532
:101FE000826089BD09B400FEFDCF61E070E080E051
:101FF00090E00E94C2028091D8008F7C8061809323
:10200000D8008091E000807F8093E0008091E10023
:102010008E7E8093E1008DE08093E200559A209AB5
:1020200061E082E10E94560261E083E10E94560273
:1020300061E084E10E94560212E062E0812F0E947A
:1020400056021F5F1C30C9F790E080E00E94A8098B
:102050008F3F09F488C00E94CD098C010E94C008FE
:102060000817190709F07FC060E084E10E94280288
:1020700061E083E10E94280281E090E09A838983F5
:1020800060E0CE0101960E948F0990E080E00E94FE
:10209000A809813009F002C10E94110A68E97AE3B7
:1020A00080E090E00E94C2020E94110A81E691E065
:1020B0009093900480938F040E94110A1092E10083
:1020C00080E18093E2000E94110A0E94AA090E9406
:1020D000110A63E273E083E894E00E948D0964EFE3
:1020E00071E080E090E00E94C20260EB83E894E03F
:1020F0000E94010864EF71E080E090E00E94C2025B
:102100000E94110A809113038823B9F063E173E000
:1021100083E894E00E948D0964EF71E080E090E034
:102120000E94C20260EB83E894E00E94010864EF21
:1021300071E080E090E00E94C2020E947709082FBF
:1021400064E670E080E090E00023A9F30E94770944
:10215000182F882309F458C064E670E080E090E00E
:102160000E94C202F3CF61E082E10E94280260E097
:1021700083E10E94280260E084E10E94280281E05D
:1021800090E00E94A80981110BC061E081E090E01D
:102190000E942D0E60ED77E080E090E00E94C20288
:1021A00062E081E090E00E942D0E0E94DA098FEF3C
:1021B0009FEF9093190480931804F12C10E000E035
:1021C00035E0C32ED12CE0900B016AE070E080E096
:1021D00090E00E94C202E1106EC10F5F1F4FC80164
:1021E000B6010E944D15892B41F4F1105EC161E0EA
:1021F00082E10E942802FF24F39462E370E080E011
:1022000090E00E94C202DFCFF12CE12C55E0C52EF8
:10221000D12C0E94770981111DC08FEFE81AF80AAE
:10222000C701B6010E944D15892B39F411110CC05C
:1022300061E083E10E942802102F62E370E080E0F9
:1022400090E00E94C202E5CF60E083E10E94280294
:1022500010E0F3CF0E947709882339F064E670E03C
:1022600080E090E00E94C202F5CF60E083E10E942E
:10227000280261E084E10E9428020E9477098823F5
:1022800031F00E9477098111FCCF0C94000064E6C4
:1022900070E080E090E00E94C202EFCF823009F04F
:1022A000AFC00E94110A8091B00480FF58C060E165
:1022B00077E280E090E00E94C2020E94110A81E66B
:1022C00091E09093900480938F040E94110A1092E1
:1022D000E10080E18093E2000E94110A0E94AA09B5
:1022E0000E94110AF12C10E000E045E0C42ED12C30
:1022F0000E94770981111DC00F5F1F4FC801B601F1
:102300000E944D15892B41F4F1100DC061E083E16D
:102310000E942802FF24F39462E370E080E090E0E2
:102320000E94C202E5CF60E083E10E942802F12C06
:10233000F3CF0E947709882339F064E670E080E0EB
:1023400090E00E94C202F5CF88E19EE00FB6F894BB
:10235000A895809360000FBE90936000FFCF80919E
:10236000B00483FF55C260E67AEE80E090E00E9400
:10237000C2020E94110A81E691E09093900480933A
:102380008F040E94110A1092E10080E18093E20024
:102390000E94110A0E94AA090E94110A63E273E0D6
:1023A00083E894E00E948D0964EF71E080E090E0A2
:1023B0000E94C20260EB83E894E00E94010864EF8F
:1023C00071E080E090E00E94C20260E083E10E9440
:1023D000280261E084E10E94280215E00E9477094A
:1023E000882339F00E9477098111FCCF1EBB0C9421
:1023F000000064E670E080E090E00E94C202EECF50
:10240000833009F005C20E94110A61E083E10E9455
:1024100028026AEF70E080E090E00E94C20281E64C
:1024200091E09093900480938F040E94110A6AEFC8
:1024300070E080E090E00E94C2020E94AA090E941F
:10244000110A63E273E083E894E00E948D090E9420
:10245000110A64EF71E080E090E00E94C2020E94E5
:10246000110A80911303882361F063E173E083E82C
:1024700094E00E948D0964EF71E080E090E00E949A
:10248000C20260EB83E894E00E94010864EF71E00F
:1024900080E090E00E94C20260E083E10E94280296
:1024A00061E084E10E942802FFCF60E082E10E94A7
:1024B0002802F12CA2CE61E082E10E9428028091E4
:1024C0000B016AE070E080E090E00E94C20210928E
:1024D000E10080E18093E20068E671E08CE094E046
:1024E0000E94630960E871E08CE094E00E94630957
:1024F00064EC71E08CE094E00E94630961E072E0BA
:102500008CE094E00E9463090E94A70125E0C22E9E
:10251000D12C8CE094E00E944C06892BE9F40F5FEB
:102520001F4FC801B6010E944D15892B41F4F110CF
:102530000DC061E082E10E942802FF24F39462E36F
:1025400070E080E090E00E94C202E3CF60E082E1B0
:102550000E942802F12CF3CF61E082E10E94280260
:102560008CE094E00E944C06892BD1F369E170E085
:1025700080E090E00E94C2028CE094E00E940A0693
:10258000182F8CE094E00E944C06892B29F08CE0F7
:1025900094E00E940A06F5CF1F7D173579F01C34B0
:1025A00009F478C01D3409F478C066E472E08CE068
:1025B00094E00E9463090E94A701D2CFFF24F39404
:1025C0006DE572E08CE094E00E9463090E94A7012F
:1025D0008CE094E00E944C06892BD1F369E170E015
:1025E00080E090E00E94C20204E010E08CE094E001
:1025F0000E940A068D3019F0682F8A3009F460E0D5
:10260000C8010E942D0E0F5F1F4F0434110571F792
:1026100060E084E490E00E942D0E8CE094E00E9443
:102620004C06892BE9F505E410E0F0FE93C064E860
:1026300072E08CE094E00E9463090E94A7018CE0A4
:1026400094E00E944C06892BD1F369E170E080E0B0
:1026500090E00E94C20205E410E08CE094E00E9449
:102660000A068D3019F0682F8A3009F460E0C8013D
:102670000E942D0E0F5F1F4F0535110571F78CE07D
:1026800094E00E944C06892B81F08CE094E00E943B
:102690000A06F5CF92E0F92E93CF83E0F82E90CF83
:1026A0008CE094E00E940A06B8CF6F2D90E080E0A5
:1026B0000E942D0E60E081E090E00E942D0E0E94AD
:1026C000C008082F0E94C008192F602F82E090E0F8
:1026D0000E942D0E612F83E090E00E942D0E0E943B
:1026E000AA096BEB8FEF93E00E942D0E62EA72E075
:1026F0008CE094E00E9463090E94A70160E082E1FF
:102700000E9428020E947709882339F00E947709E5
:102710008111FCCF0C940000F5CF60E083E10E94B2
:10272000280261E084E10E94280264EF71E080E009
:1027300090E00E94C20261E083E10E94280260E012
:1027400084E10E94280264EF71E080E090E00E9442
:10275000C202D8CF60E0C8010E942D0E0F5F1F4F4C
:1027600005351105B9F762E090E080E00E942D0E7A
:1027700060E081E090E00E942D0E0E94C008082FCA
:102780000E94C008192F602F82E090E00E942D0E59
:10279000612F83E090E00E942D0E0E94AA096BEB4E
:1027A0008FEF93E00E942D0E62EA72E08CE094E0DD
:1027B0000E9463090E94A70160E082E10E94280252
:1027C0000E947709882339F00E9477098111FCCF94
:1027D0000C940000F5CF60E083E10E94280261E0E4
:1027E00084E10E94280264EF71E080E090E00E94A2
:1027F000C20261E083E10E94280260E084E10E945D
:10280000280264EF71E080E090E00E94C202D8CF1D
:1028100000E010E001151105E9F30E943805882356
:10282000C9F30E940000F6CF87E591E090939204EF
:1028300080939104809111039091120381599440E7
:1028400071F4E091A404F091A50490818091A60414
:1028500080958923808310921203109211030895AA
:102860008F929F92AF92BF92CF92DF92EF92FF92A0
:10287000CF93DF93EC01688179818A819B81611517
:1028800071058105910521F464E279ED8BE597E00E
:102890002DE133EF41E050E00E94EA1449015A0172
:1028A0009B01AC01A7EAB1E40E9409156B017C0110
:1028B000ACEEB4EFA50194010E941715C60ED71E09
:1028C000E81EF91EF7FE06C081E0C81AD108E1082B
:1028D00080E8F80AC882D982EA82FB82C701B60181
:1028E0009F77DF91CF91FF90EF90DF90CF90BF90D7
:1028F000AF909F908F9008958F929F92AF92BF92CA
:10290000CF92DF92EF92FF926091130170911401C8
:102910008091150190911601611571058105910550
:1029200021F464E279ED8BE597E02DE133EF41E0AE
:1029300050E00E94EA1449015A019B01AC01A7EA48
:10294000B1E40E9409156B017C01ACEEB4EFA50166
:1029500094010E941715C60ED71EE81EF91EF7FE39
:1029600006C081E0C81AD108E10880E8F80AC092E0
:102970001301D0921401E0921501F0921601C701E3
:10298000B6019F77FF90EF90DF90CF90BF90AF9010
:102990009F908F900895609313017093140180931A
:1029A0001501909316010895F999FECF92BD81BD4E
:1029B000F89A992780B50895262FF999FECF1FBA66
:1029C00092BD81BD20BD0FB6F894FA9AF99A0FBE58
:1029D00001960895052E97FB1EF400940E940115A0
:1029E00057FD07D00E941C1507FC03D04EF40C9431
:1029F000011550954095309521953F4F4F4F5F4FB2
:102A0000089590958095709561957F4F8F4F9F4F5A
:102A100008950E943E15A59F900DB49F900DA49F10
:102A2000800D911D11240895B7FF0C9409150E9483
:102A30000915821B930B0895A1E21A2EAA1BBB1B3A
:102A4000FD010DC0AA1FBB1FEE1FFF1FA217B3077A
:102A5000E407F50720F0A21BB30BE40BF50B661F90
:102A6000771F881F991F1A9469F760957095809554
:102A700090959B01AC01BD01CF010895A29FB001CB
:102A8000B39FC001A39F700D811D1124911DB29FA2
:102A9000700D811D1124911D0895AA1BBB1B51E1CE
:102AA00007C0AA1FBB1FA617B70710F0A61BB70BBE
:102AB000881F991F5A95A9F780959095BC01CD0163
:102AC0000895EE0FFF1F0590F491E02D099411E099
:102AD000C6E3D1E004C0FE010E9461152196C73310
:102AE000D107C9F7F894FFCFFFFFFFFF00E1000017
:102AF0000000000000C18081000000010000000013
:102B00000000006D053604FB04B9052C050A051EFE
:102B10000500000000EF05D9050506F5024C060A80
:102B20000628060000000011078A074F0734070037
:102B30000000000108D507BD08BC08000000007EA9
:102B4000063604BD08F402DA06F00666060D0A0031
:102B500053656C65637420456E6372797074696F38
:102B60006E204D6F64653A002D2D3E20466F722019
:102B70004175746F6D61746963205665726143724B
:102B80007970742053797374656D2044656372792C
:102B90007074696F6E202857696E646F777329208F
:102BA0002D20456E74657220275727002D2D3E205D
:102BB000466F72204175746F6D61746963204C7546
:102BC0006B732053797374656D20446563727970FB
:102BD00074696F6E20284C696E757829202D204508
:102BE0006E74657220274C27002D2D3E20466F7293
:102BF000204D616E75616C204465637279707469F3
:102C00006F6E2028456E746572732043726564652B
:102C10006E7469616C73206F6E20506C7567696E9D
:102C200029202D20456E74657220274D2700496E9E
:102C300076616C6964204D6F64652053656C6563D3
:102C400074696F6E00456E7465722050617373779E
:102C50006F72642028363420636861726163746522
:102C60007273206F72206C6573732900456E7465F2
:102C7000722050494D2028507265737320272A27EF
:102C8000206966206E6F6E652900436F6E66696706
:102C900075726174696F6E20636F6D706C657465B9
:022CA000000032
:107000005FC0000078C0000076C0000074C00000BF
:1070100072C0000070C000006EC000006CC00000B4
:107020006AC0000068C0000000C5000064C0000025
:1070300062C0000060C000005EC000005CC00000D4
:107040005AC00000E9C0000056C0000054C0000053
:1070500052C0000050C000004EC000004CC00000F4
:107060004AC0000048C0000046C0000044C0000004
:1070700042C0000040C000003EC000003CC0000014
:107080003AC0000038C0000036C0000034C0000024
:1070900032C0000030C000002EC000002CC0000034
:1070A0002AC0000028C0000026C00000803E993E93
:1070B000453F993E453FD13EF33E453F133F253F77
:1070C00011241FBECFEFDAE0DEBFCDBF11E0A0E09C
:1070D000B1E0E8E3FFE702C005900D92A63BB107DF
:1070E000D9F721E0A6EBB1E001C01D92AC3CB2079C
:1070F000E1F762D31FC784CF84E08093E9008091D9
:10710000E80085FD0DC08091E8008B778093E80052
:107110008091E80082FDF3CF8EB38111F9CF02C0D8
:107120008091F100089593E09093E9009091E80038
:1071300095FF0AC08093F1008F9A84E690E09093C7
:10714000BB018093BA0108959091E8009E779093D7
:10715000E8009091E80090FDEDCF9EB39111F9CF3A
:107160000895F89410926F0010928100109285009B
:107170001092840081E085BF15BE47988F988E9845
:107180000C94000008952091C0013091C1012F5F3F
:107190003F4F3093C1012093C001832F37FF02C0BE
:1071A0008EEF831B3327880F90E08217930714F428
:1071B00047980895479A089584B7877F84BF0FB68C
:1071C000F894A89580916000886180936000109287
:1071D00060000FBE90E880E00FB6F89490936100D5
:1071E000809361000FBE81E085BF82E085BF3F9A3A
:1071F000869A879AE1E6F0E09083108247988F980C
:107200008E98109289009AEF9093880080936F0077
:1072100083E08093810008951F920F920FB60F9222
:1072200011242F938F939F93EF93FF9310928500D8
:10723000109284008091BA019091BB01009741F0B7
:1072400001979093BB018093BA01892B09F48F9821
:107250008091B8019091B901009741F00197909306
:10726000B9018093B801892B09F48E98E0E0F0E031
:1072700085919491019649F08091B6019091B70162
:1072800001969093B7018093B601FF91EF919F9182
:107290008F912F910F900FBE0F901F90189542E085
:1072A00061EC82E03FD342E161E883E03BD342E11D
:1072B00060E884E037C38091C401982F9F779132B2
:1072C00039F59091C501903291F0913209F5813AEA
:1072D000F9F48091E800877F8093E80067E070E030
:1072E00083E091E053D48091E8008B770FC0813226
:1072F00079F48091E800877F8093E80067E070E090
:1073000083E091E09BD48091E8008E778093E80041
:1073100008954F925F926F927F928F929F92AF9259
:10732000BF92CF92DF92EF92FF920F931F93CF9372
:10733000DF9384E08093E9008091E80082FF2BC214
:107340008E9A84E690E09093B9018093B801D4DEE0
:10735000C82F853481F48CE89CE39093B701809327
:10736000B60107B600FCFDCFF999FECF81E180930D
:107370005700E89503C0843521F4BEDE8DE0D3DEEE
:10738000E1C18C34D9F38035C9F3843721F484E426
:10739000CADE80E0F4CF813611F489E5F0CF813484
:1073A00091F4AADEC82FA8DE2C2F30E0322F22273E
:1073B000330F90E0880F991F822B932B092E000C1E
:1073C000AA0BBB0B93C1803711F483E5D8CF83356B
:1073D00049F4C0EBD1E08991A6DE21E0C73BD2079A
:1073E000D1F7B0C1863521F481E39DDE80E3C7CFBC
:1073F000833731F487E897DE85E995DE8EE1BFCFEC
:107400008536B9F4E0E0F0E083E095E08093570042
:10741000E89507B600FCFDCF90935700E89507B6B6
:1074200000FCFDCFE058FF4FE11540E7F40771F78E
:10743000A5CF823719F4E1E0F0E00EC0863419F4EC
:10744000E0E0F0E009C08E3419F4E3E0F0E004C0BD
:10745000813539F4E2E0F0E089E0809357008491CF
:107460008ECF823631F489E55EDE80E05CDE80E836
:1074700086CF823419F0873609F0D0C01092B70158
:107480001092B60139DE082F37DED82F35DE182FDF
:107490008BEB810F823010F08FE371CF8D2F90E056
:1074A000902B10926F00C73609F042C021E1209363
:1074B0005700E895EC01B12C01E0209709F4AAC02F
:1074C000C090BC01D090BD01E090BE01F090BF0122
:1074D0001634B9F4EB2DF0E0EC29FD29849123DE7C
:1074E000BB2069F052E0C50ED11CE11CF11CC0921A
:1074F000BC01D092BD01E092BE01F092BF01B02666
:1075000015C0D701C601B695A79597958795EAD47A
:107510000ADE82E0C80ED11CE11CF11CC092BC0145
:10752000D092BD01E092BE01F092BF012197C5CF7C
:107530008090BC019090BD01A090BE01B090BF01B1
:10754000163441F423E0F40120935700E89507B680
:1075500000FCFDCFE12CF12CEC0101E0209709F4B7
:107560004DC0163439F5FF2009F14090BC01509010
:10757000BD016090BE017090BF01BEDD2E2D30E0D8
:10758000A901582BF2010A0100935700E895112434
:10759000F2E04F0E511C611C711C4092BC015092D4
:1075A000BD016092BE017092BF0102C0A5DDE82E50
:1075B000F02622C0A1DD682F8091BC019091BD0111
:1075C000A091BE01B091BF01B695A79597958795FB
:1075D000A3D48091BC019091BD01A091BE01B09156
:1075E000BF010296A11DB11D8093BC019093BD0106
:1075F000A093BE01B093BF012197B0CF163441F4E0
:1076000085E0F40180935700E89507B600FCFDCFB4
:107610008DE089DD82E080936F0094C0833471F443
:10762000C091BC01D091BD0167DD90E021E0FE0179
:107630000C0120935700E8951124A0CE833601F564
:10764000C090BC01D090BD01E090BE01F090BF01A0
:1076500053DDF601E16090E021E00C01209357003A
:10766000E8951124F2E0CF0ED11CE11CF11CC09270
:10767000BC01D092BD01E092BE01F092BF017ECE6E
:107680008D3661F4E091BC01F091BD0185E08093FD
:107690005700E89507B600FCFDCF70CE823551F457
:1076A000E091BC01F091BD01C591D4918D2F3BDDDE
:1076B0008C2F65CE843419F51FDD682F8091BC01B5
:1076C0009091BD01A091BE01B091BF01B695A79563
:1076D0009795879521D48091BC019091BD01A0918F
:1076E000BE01B091BF010296A11DB11D8093BC01E6
:1076F0009093BD01A093BE01B093BF013FCE8436ED
:10770000F1F4C090BC01D090BD01E090BE01F090BA
:10771000BF01D701C601B695A79597958795E2D386
:1077200002DD22E0C20ED11CE11CF11CC092BC01A2
:10773000D092BD01E092BE01F092BF0103C08B3137
:1077400009F0AACE83E08093E9009091E80080914F
:10775000E8008E778093E80095FD11C08091E800E5
:1077600080FD04C08EB38111F9CF15C08091E8006F
:107770008E778093E80003C08EB3882361F08091F8
:10778000E80080FFF9CF84E08093E9008091E80071
:107790008B778093E800DF91CF911F910F91FF903D
:1077A000EF90DF90CF90BF90AF909F908F907F90A1
:1077B0006F905F904F900895EF92FF921F93CF9339
:1077C000DF93E0900008F0900108109201081092F9
:1077D000000814B71EBB14BE0FB6F894A89580918C
:1077E0006000886180936000109260000FBE81E0AD
:1077F00090E078D382508D3F90F46FEF80E090E07E
:1078000079D3C2E0D0E06FEFCE0174D32196C115D9
:1078100024E0D207C1F76FEF81E090E06BD310FF57
:1078200008C0E0E0F0E085919491019611F099DCB8
:1078300021C013FF0DC08091000190910101E81655
:10784000F90631F0E0E0F0E085919491019679F746
:107850006FEF80E090E04ED3C2E0D0E06FEFCE015A
:1078600049D32196C11584E0D807C1F76FEF81E0B5
:1078700090E040D3A1DCC1D078941092B70110926F
:10788000B60180910201882369F043DD14D3809111
:10789000B6019091B70181389E4310F01092020119
:1078A00072DCEFCF8091E00081608093E00059DCD2
:1078B00080E090E0DF91CF911F91FF90EF900895CD
:1078C000292F30E02230310559F02330310569F09D
:1078D00021303105F9F482E190E02EE931E01EC05B
:1078E0008EE390E020E631E019C0882349F0813032
:1078F00061F0823079F48EE290E02AE031E00EC04F
:1079000084E090E02CE531E009C082E290E02AE3D7
:1079100031E004C080E090E020E030E0FA01318303
:10792000208308958093E900EBEEF0E08081816090
:107930008083EDEEF0E010826093EC004083809154
:10794000EE00881F8827881F08958091C40187FF53
:107950000FC08091E80082FD04C08EB38111F9CF81
:1079600010C08091E8008B770AC08EB3882349F05D
:107970008091E80080FFF9CF8091E8008E778093B6
:10798000E80008950F931F93CF93DF9341D048D021
:10799000C8EDD0E088818F7788838881806888836C
:1079A00088818F7D888319BC1EBA1092C20100EEB7
:1079B00010E0F80180818B7F8083888181608883DB
:1079C00042E060E080E0AEDFE1EEF0E080818E7FBB
:1079D0008083E2EEF0E08081816080838081886036
:1079E0008083F80180818E7F808388818061888395
:1079F000DF91CF911F910F910895E7EDF0E0808125
:107A0000816080838AE482BF81E08093C301BACF22
:107A1000E8EDF0E080818E7F80831092E20008958F
:107A20001092DA001092E10008951F920F920FB6A3
:107A30000F9211242F933F934F935F936F937F93F4
:107A40008F939F93AF93BF93EF93FF938091DA004F
:107A500080FF1BC08091D80080FF17C08091DA00A2
:107A60008E7F8093DA008091D90080FF0BC080E187
:107A700089BD82E189BD09B400FEFDCF81E08EBBE6
:107A800019D203C019BC1EBA15D28091E10080FF43
:107A900017C08091E20080FF13C08091E2008E7FCA
:107AA0008093E2008091E20080618093E200809107
:107AB000D80080628093D80019BC85E08EBBFAD1D3
:107AC0008091E10084FF2CC08091E20084FF28C0F7
:107AD00080E189BD82E189BD09B400FEFDCF8091BE
:107AE000D8008F7D8093D8008091E1008F7E8093B5
:107AF000E1008091E2008F7E8093E2008091E200BD
:107B000081608093E2008091C201811106C0809162
:107B1000E30087FD02C081E001C084E08EBBCAD1D2
:107B20008091E10083FF21C08091E20083FF1DC0AE
:107B30008091E100877F8093E10082E08EBB10920C
:107B4000C2018091E1008E7F8093E1008091E2008C
:107B50008E7F8093E2008091E20080618093E2005A
:107B600042E060E080E0DEDEA5D1FF91EF91BF91C1
:107B7000AF919F918F917F916F915F914F913F91C5
:107B80002F910F900FBE0F901F9018952091CA0152
:107B90003091CB012617370748F06115710539F48C
:107BA0002091E8002E772093E80001C0B901FC0184
:107BB00020E06115710571F18EB38823D9F185300C
:107BC000D9F18091E80083FD33C08091E80082FD07
:107BD00029C08091E80080FFECCF2091F3008091D4
:107BE000F20090E0922B6115710551F088309105FB
:107BF00038F421912093F100615071090196F3CF7F
:107C000021E0089709F020E08091E8008E778093CA
:107C1000E800CFCF2111D0CF05C08EB3882351F01B
:107C2000853051F08091E80082FFF7CF80E0089521
:107C300081E0089582E0089583E00895611571055B
:107C400029F42091E8002B772093E800FC016115CE
:107C5000710531F18EB3882359F1853059F1809146
:107C6000E80083FD23C08091E80082FFF0CF2091DF
:107C7000F3008091F20090E0922B892B31F08091FB
:107C8000F10081936150710991F78091E8008B7741
:107C90008093E800DCCF8EB3882351F0853051F01B
:107CA0008091E80080FFF7CF80E0089581E008959B
:107CB00082E0089583E008950F931F93CF93DF939D
:107CC00000D0CDB7DEB7E4ECF1E08CEC91E0209190
:107CD000F10021938E179F07D1F7EDDA8091E8002C
:107CE00083FFD3C08091C4019091C501492F50E01A
:107CF0004A30510508F0C9C0FA01EA5AF74CECC005
:107D0000823809F0C2C08091C80187708093E90071
:107D10008091EB001092E9009091E800977F90939A
:107D2000E80085FB882780F98093F1001092F1002C
:107D300085C0282F2D7F09F0A8C0823009F0A5C08A
:107D40008091C601811127C08091C801877009F414
:107D50009CC08093E9002091EB0020FF1CC0933071
:107D600021F48091EB00806214C09091EB0090614F
:107D70009093EB0021E030E0A90102C0440F551FB1
:107D80008A95E2F74093EA001092EA008091EB00B6
:107D900088608093EB001092E9008091E800877F73
:107DA00050C0811172C01091C6011F770FB7F894AF
:107DB0008091E800877F8093E800C7DD8091E8002C
:107DC00080FFFCCF8091E3008078812B8093E300DB
:107DD00080688093E300111102C082E001C083E05B
:107DE0008EBB0FBF52C08058823008F04EC0AE012B
:107DF0004F5F5F4F6091C8018091C6019091C701AC
:107E00005FDDBC01892B09F440C09091E800977FA9
:107E10009093E80089819A81B9DE8091E8008B77A0
:107E20008093E80032C0803881F58091E800877F38
:107E30008093E8008091C2018093F1008091E80076
:107E40008E778093E80081DD20C081111EC0809173
:107E5000C6019091C70199270297BCF48091E80070
:107E6000877F8093E8008091C6018093C2016DDD19
:107E70008091C201811106C08091E30087FD02C09C
:107E800081E001C084E08EBB0ADA8091E80083FFC4
:107E90000AC08091EB0080628093EB008091E80043
:107EA000877F8093E8000F900F90DF91CF911F9113
:107EB0000F9108950895CF938EB3882359F0C09100
:107EC000E900C7701092E9008091E80083FDF4DEBC
:107ED000C093E900CF910895EE0FFF1F0590F49134
:107EE000E02D0994F999FECF92BD81BDF89A9927AA
:107EF00080B50895262FF999FECF92BD81BDF89ADD
:107F0000019700B4021639F01FBA20BD0FB6F894DD
:107F1000FA9AF99A0FBE0895262FF999FECF1FBA43
:107F200092BD81BD20BD0FB6F894FA9AF99A0FBEA2
:107F300001960895F894FFCF7777010000000000C4
:107F400000082E037700770077002E00640065009C
:107F50006600690061006E006300650064006900EE
:107F600067006900740061006C002E0075007300EA
:107F7000000022037500420041004400200042003E
:107F80006F006F0074006C006F006100640065009A
:107F9000720000000403090409023E00020100808F
:107FA000320904000001020201000524001001044E
:107FB0002402040524060001070582030800FF09C6
:107FC000040100020A000000070504021000010776
:107FD0000583021000011201100102000008C01602
:0E7FE000E1050100020100017542414400006C
:00000001FF
